:020000040800F2
:10000000280F0020790200088102000883020008FE
:10001000850200088702000889020008000000002D
:100020000000000000000000000000008B0200083B
:100030008D020008000000008F02000891020008F5
:10004000930200089302000893020008930200083C
:10005000930200089302000893020008930200082C
:100060009302000893020008B51C000893020008E0
:10007000930200089302000893020008930200080C
:1000800093020008930200089302000893020008FC
:1000900093020008930200089302000893020008EC
:1000A00093020008930200089302000893020008DC
:1000B000930200083D2800089302000893020008FC
:1000C00093020008930200089302000893020008BC
:1000D00093020008CD29000893020008792A00083D
:1000E000930200089302000893020008930200089C
:1000F000930200089302000893020008930200088C
:10010000930200089302000893020008930200087B
:10011000930200089302000893020008930200086B
:10012000930200089302000893020008930200085B
:1001300000F002F800F090F80AA090E8000C824469
:100140008344AAF10107DA4501D100F085F8AFF246
:10015000090EBAE80F0013F0010F18BFFB1A43F0A5
:10016000010318477432000094320000103A24BF93
:1001700078C878C1FAD8520724BF30C830C144BF0C
:1001800004680C607047000000230024002500264E
:10019000103A28BF78C1FBD8520728BF30C148BFEA
:1001A0000B6070476E2900F02983702900F085816B
:1001B000662903F07980652903F07680672903F0CA
:1001C0007380612903F0728003681B0A28BF41F025
:1001D0008001692900F0F680642900F0F380752918
:1001E00000F0F0806F2900F02084782900F0518120
:1001F000E92900F0BB83E42900F0B883F52900F079
:10020000B583EF2900F01D84F82900F050810368C0
:10021000DB0928BF41F08001632900F02A8373299C
:1002200000F02F83E32900F0F387F32900F0F8872B
:10023000002070471FB501F049F80400002000219C
:1002400003F01CF8401C60600020002103F000F85F
:10025000E0601FBD10B510BD01F00AF81146FFF7B0
:10026000E9FF02F053FE01F0E7F803B4FFF7F2FFF5
:1002700003BC02F099FD0000094880470948004787
:10028000FEE7FEE7FEE7FEE7FEE7FEE7FEE7FEE746
:10029000FEE7FEE704480549054A064B70470000A3
:1002A000DD2700083101000828090020280F002060
:1002B000280B0020280B0020704700001CB50C46BE
:1002C000064B7B4469460090204600F0B0FA044695
:1002D0000020694600F0BEFA20461CBD8F050000D4
:1002E0000FB4044910B503AA029800F0CFFA10BC6D
:1002F0005DF814FB300000200FB41CB5084B06AAB3
:100300007B4469460090059800F091FA044600206D
:10031000694600F09FFA20461CBC5DF814FB000003
:100320005105000070B5044685690068C10601D515
:10033000302600E02026C00707D070BDD4E9012197
:1003400030469047206A401C20626D1EF6D570BD75
:1003500070B5044685690078C00707D170BDD4E93F
:10036000012120209047206A401C20626D1EF6D596
:1003700070BD70B50C460546012A05D02878800668
:1003800000D5EA69002302E0012305E05B1C9342EB
:1003900002D2E05C0028F9D1A869E618C01AA86169
:1003A000286A184428622846FFF7BCFF04E0D5E914
:1003B000012114F8010B9047B442F8D32846FFF707
:1003C000C7FF70BD2DE9F04106460024106875296D
:1003D000314616A510D000F0A6F9002802DA4042F6
:1003E00013A507E031688A0701D512A502E0490785
:1003F00004D511A5012401E000F09EF900210A2294
:1004000006F1240709E0B0FBF2FCB0FBF2F302FBBB
:100410001C00303078541846491C0028F3D123467C
:100420002A463046BDE8F04100F08FB900000000D8
:100430002D0000002B00000020000000F0B40D464D
:100440000188090502D5214C7C4402E01F4C7C4404
:100450000E34002100F1240608E002F00F07120913
:10046000E75D42EA03721B097754491C52EA03070D
:10047000F3D102780023120704D5702D06D009B1FC
:10048000022311342246F0BC00F05FB9012310347E
:10049000F8E770B504460D462146106800F04CF9A7
:1004A000024629462046BDE870400023C6E7D21D1B
:1004B00022F00703D3E90023C0E70368126843F082
:1004C000200303600823C3610023B7E78C2E0000DC
:1004D0002DE9F05F894604464FF0000ADFF874B159
:1004E000FB44C0F820A02046E1688847002874D06B
:1004F000252806D0D4E901219047206A401C2062BB
:10050000F1E700265F462046E16888472028054637
:1005100007DB312D05D2781910F8200C08B10643FD
:10052000F1E7B00701D526F00406C4F81CA00027A7
:10053000C4F818A02A2D09D0284602F02EFC38B3A2
:1005400004EB8708303DC8F8185019E059F8041B2F
:10055000204604EB87029161E1688847012F054638
:1005600018D1E069002820DA26F020061DE0D8F82E
:10057000180000EB800005EB40003038C8F8180088
:100580002046E1688847054602F007FC0028EED1C6
:10059000012F0AD02E2D08D12046E16888477F1C04
:1005A0000546022F46F02006C4DBA069002803DAC6
:1005B000404246F00106A061F00701D026F0100687
:1005C0006C2D0BD0682D09D04C2D39D06A2D35D02B
:1005D000742D35D07A2D33D016E038E0E1682F46FF
:1005E00020468847B842054609D16C2F26D04FF4E3
:1005F0008060E168064320468847054604E06C2F8A
:100600001AD04FF4807006430DB3A5F141001928AC
:1006100002D8203546F400664A4629462046266020
:100620004E46FFF7BFFD80B101280BD0F61D26F026
:10063000070000F1080956E74020E4E78020D8E7EA
:100640000020D6E706F104094DE7284652E7206A64
:10065000BDE8F09F1C2E000030B505460B462A462B
:1006600013F8014B12F8010B08B1A042F8D01CB1ED
:10067000002802D06D1CF1E7284630BD10B5431CA0
:1006800002E010F8011B71B18107FAD14FF001327D
:1006900002C88C1A8C4314EAC211F9D0C01A0A0697
:1006A00003D0C01E10BDC01A10BD0A0401D0801EA8
:1006B00010BD0902FCD0401E10BD10B5203AC0F09C
:1006C0000B80B1E81850203AA0E81850B1E8185053
:1006D000A0E81850BFF4F5AF5FEA027C24BFB1E890
:1006E0001850A0E8185044BF18C918C0BDE8104001
:1006F0005FEA827C24BF51F8043B40F8043B08BF0A
:100700007047D20728BF31F8023B48BF11F8012BD0
:1007100028BF20F8023B48BF00F8012B7047704704
:1007200070477047704709684A0501D540B2704765
:10073000C905FCD500B2704709684A0501D5C0B2A9
:100740007047C905FCD580B270472DE9F0470D46CA
:1007500099469246044600F124080168880604D5AB
:10076000E06921F01001216000E00120A84201DDD4
:10077000471B00E00027A1697A1902EB0900081A5B
:10078000A0612078C00602D42046FFF7CBFD0026EA
:1007900008E0D4E901211AF806009047206A401CBD
:1007A000761C20624E45F4DB2078C0060AD5204630
:1007B000FFF7B8FD06E0D4E9012130209047206A18
:1007C000401C2062381EA7F10107F4DC07E0D4E9E1
:1007D000012118F805009047206A401C2062281E5D
:1007E000A5F10105F3DC2046FFF7B2FD20780006F5
:1007F00002D50220BDE8F0870120FBE711680268FE
:10080000006A530501D508700AE0D30501D50880B8
:1008100006E0130603D5C217C1E9000200E0086034
:100820000120704701694A1C02610878704700B5D1
:100830008FB0CDE901310021059105497944CDE919
:10084000031011466846FFF743FE0FB000BD0000DD
:10085000E5FFFFFF0A6802F8010B0A60704710B558
:10086000436913B1AFF3008001E0FFF782FD01207F
:1008700010BD127800F124010A7000224A70012292
:10088000EDE711684FF0FF32E9E70000074B70B564
:100890000D467B44FFF7CBFF0446284600F0C4FC1E
:1008A00010B14FF0FF3070BD204670BDA72500008D
:1008B0002DE9FF5F15468A460446DFF8AC80F84410
:1008C0000027D8E900103E46CDE9001010E03AF8C4
:1008D00016106A4602A800F0ABFC411C07D0217834
:1008E000890603D5E269391891420DD80744761C70
:1008F0002078800602D5E069B84205DDAE42E6DB2D
:100900003AF816000028E2D1A069C01BA061204679
:10091000FFF708FDD8E90010CDE90010002017E02E
:100920003AF818106A4602A800F082FCB0F1FF3FC6
:1009300081460BD000250DF1080B05E0D4E901211B
:100940001BF8050090476D1C4D45F7D308F10100D9
:10095000B0428046E4DB206A384420622046FFF73C
:10096000F7FCBDE8FF9F0000522A00002DE9F0418E
:100970008046D21D22F007020025D2E90002F529A7
:1009800015A614D0011E72F1000106DA0023D0EB87
:10099000030063EB020211A608E0D8F800108B07F1
:1009A00001D50FA602E0490701D50EA60125114683
:1009B000002408F1240704E000F04EF830323A55E4
:1009C000641C50EA0102F7D12B46324621464046CC
:1009D000BDE8F041FFF7B9BE000000002D000000A7
:1009E0002B0000002000000030B4002100F124049E
:1009F00008E002F00705D208303542EA4372DB080E
:100A00006554491C52EA0305F3D10468002310A27F
:100A1000250707D5A40600D421B1C46901230DA27E
:100A2000641EC46130BCFFF790BE10B50446214679
:100A30001068FFF781FE02462046BDE81040002303
:100A4000D2E7D21D22F00701D1E90023CCE7000054
:100A5000000000003000000030B5B0F10A024FEA9B
:100A6000900E71F100034EEA817EB0EB0E0061EB57
:100A700091014FEA101E4EEA017E10EB0E0041EB91
:100A800011114FEA102E4EEA016E10EB0E0041EBF1
:100A900011214FEA104E4EEA014E10EB0E0041EBD1
:100AA0001141401841F100014FEAD00040EA417085
:100AB0004FEAD10110EB80054FEA810444EA9074BB
:100AC00044EB01046D1944EB0404521BA3414FF0A5
:100AD000000348BF0A3200D530BD401C41F100017F
:100AE00030BD70472DE9FF4F0C461E464FF0FF37D3
:100AF0008BB0D2E90001DDF860800A908A46C1F32C
:100B00000A5505B93D46002108464FF00000BAF1EC
:100B1000000F00F4400005DA00EB80004FF44001C4
:100B200001EA50004FEA9059B9F1010F00DDB946D2
:100B30000A9850EA4A000ED044F61050A5F2FF354C
:100B400045432F14B8F1000F1ED07542291E1EDD3B
:100B5000C9F100021CE0B8F1010F4FF0000001D014
:100B6000302103E0F24305E02154401CB042FBDB9E
:100B700030460022002121540B99C1F80880C1E9B8
:100B800000200FB0BDE8F08FBD1B6D1CDEE74A46AC
:100B900000DA694206A800F0DDFB06AB93E8070027
:100BA00003AB83E8070050460A9900F093FC8DE8F8
:100BB0000700A0F500501F3800900398002D0ADDB3
:100BC00042F21F014A460844002303A903906846E5
:100BD00000F0FCFE09E0A0F500504A461F38002353
:100BE00003A90390684600F006FF8DE807000004A3
:100BF000000C03D04FF0FF30410800E01046B8F180
:100C0000000F03D00022009215461EE0751E05D489
:100C1000FFF722FF303262556D1EF9D5B34601222F
:100C2000084302D000227F1C04E02078302801D144
:100C300000227F1E002A099784D01DE0112D07DABB
:100C4000FFF70AFF303262556D1C50EA0102F5D100
:100C5000084302D00098C8B10EE00021681E05E0EC
:100C6000235C625C63542254401E491C8142F7DBC2
:100C7000AB46A81B401E0990002004F80B000B98FF
:100C8000099AC0F80880C0E9002B7AE711264FF0D6
:100C9000000857E72DE9F04F88460446D21D22F0A0
:100CA000070191B0D1E90001CDE90A0102F061F834
:100CB00002460B98C00F01D02D2007E02068810765
:100CC00001D52B2002E0202101EAC000032A09906F
:100CD00001D0072A05DB03464146204600F0FAFA18
:100CE0000BE12078800601D5E06900E00620B8F12C
:100CF000650F814606D0B8F1660F18D0B8F1670FBE
:100D000070D131E00020B9F1110F009001DB112307
:100D100001E009F101030AAA01A90CA8FFF7E2FE0C
:100D2000DDE90C70002609F10105834647E001204A
:100D30004B4600904FF000470AAA01A90CA8FFF704
:100D4000D1FEDDE90DB00C995D46002610B909F120
:100D500001000D18B9EB050003D4C0F1FF3609F10D
:100D60000105A5EB09002BE0B9F1010F01DA4FF005
:100D700001090020B9F1110F0090484601DD11234F
:100D800000E003460AAA01A90CA8FFF7ABFEDDE9C3
:100D90000C704D4600268346207800070AD4AB45E8
:100DA00000DA5D4601A8012D04DD411911F8011C8E
:100DB000302907D04F4502DA17F1040F04DA012079
:100DC00082460FE06D1EEEE7002F02DCED1B3E4475
:100DD00003E0781CA84200DD7D1CB81B00F1010A6D
:100DE0004FF000472078000703D4AA4501DB4FF0FD
:100DF000FF3A0021B7F1004F0DF143088DF8431081
:100E000024D002202B23002F01DA7F422D230A2138
:100E1000021EA0F1010000DC5FB197FBF1FC97FB23
:100E2000F1F201FB1C7C17460CF1300C08F801CDE7
:100E3000EEE7A8F1010003702188090501D54521DD
:100E400000E06521A0F1010800F8011C09980FA934
:100E5000A1EB0807FF1D00B10120411901EBEA7069
:100E6000A1693844081A401EA0612078C00602D447
:100E70002046FFF757FA099828B1D4E90121904795
:100E8000206A401C20622078C00622D52046FFF749
:100E900049FA1EE0002E04DBB34502DD01A8805DA7
:100EA00000E03020D4E901219047206A401C2062F4
:100EB000761CAAF101005FEA000A0AD100F006FAE6
:100EC000C0680168405CD4E901219047206A401C59
:100ED0002062281EA5F10105DCDC07E0D4E9012130
:100EE00018F8010B9047206A401C2062381EA7F1B9
:100EF0000107F3DC2046FFF72BFA032011B041E68F
:100F00002DE9F04F04460D46D21D22F0070089B0AE
:100F1000D0E900974846394601F02BFF0246F80F0A
:100F200001D02D2307E02068810701D52B2302E0A3
:100F3000202101EAC0038DF820300BB1012000E030
:100F40000020032A824601D0072A04DB29462046D6
:100F500000F0C0F93FE12078800601D40D2500E0C3
:100F6000E569C7F30A560D2D49DA00214FEA175BF0
:100F700008464FF00000002F00F4400007DA00EBB5
:100F800080004FF4400100EBD07001EA6000811551
:100F9000012901DD4FF0FF3100224FEA850CBCF141
:100FA000180F06D31346ACF118004FF08052C24020
:100FB00003E04FF4801323FA0CF30CF10C0CBCF19A
:100FC000200F04D3ACF1200C09FA0CF001E007FA71
:100FD0000CF000294FF0004801DD18B90FE00ED1E8
:100FE00040450CD319EB02095F4121B9404502D1BC
:100FF0009F4329EA0209BBEB175F00D0761C2088CB
:10100000000502D57B48784402E07A4878441938D4
:1010100008AA302302F80A30037C0AF10101002EED
:101020000AF1020A53546A4602DC4FF0300101E033
:101030004FF031014FF001088DF8001002D0A6F2F8
:10104000FF3603E059EA470100D06B4E002D02DC69
:101050002178090704D54FF002082E218DF80110E0
:10106000C44600210BE0C7F303433F01C35C491CA6
:101070006D1E02F80830052908F1010801DA002D7B
:10108000F1DC00210CE000EB1973491C1B786D1E8C
:10109000082902F808304FEA091908F1010801DAB5
:1010A000002DF0DC21688B0602D516E0A8F10108BE
:1010B000E04505DD02EB080313F8013C302BF5D0C9
:1010C000B8F1000F09DD02EB080313F8013C2E2BE9
:1010D00003D1090701D4A8F10108002D05DD3E2147
:1010E00002F808106D1E08F10108407C002E02F87D
:1010F000080008F1010804DA2D20764202F8080001
:1011000002E02B2002F808000A214FF47A70864290
:1011100008F101080BDB96FBF0F3303302F80830DE
:1011200096FBF0F308F1010800FB136601E0642E62
:101130000CDB642096FBF0F3303302F8083096FBAA
:10114000F0F308F1010800FB136601E00A2E06DB4C
:1011500096FBF1F0303002F8080008F1010896FB28
:10116000F1F001FB1060303002F80800A16908F1CD
:10117000010808EB050202EB0A00081AA0612078BA
:10118000C00602D42046FFF7CDF8216A08AE01EB75
:101190000A00206204E0D4E9012116F8010B90470F
:1011A000BAF1010AF7D22078C00602D52046FFF72F
:1011B000B9F86E4609E016F8010B3E280FD0D4E9C5
:1011C00001219047206A401C2062B8F10108F2D248
:1011D0002046FFF7BDF809B00320BDE8F08F206A74
:1011E0002844206203E0D4E90121302090476D1E9D
:1011F000EBD3F8E72523000002FCFFFF10B543699D
:1012000013B1AFF3008001E0FFF752FB012010BDE6
:10121000128800F1240182840022C2840122EDE7B9
:1012200011684FF0FF32E9E7007B00F08000704763
:1012300070B516460C46054600F040F8036893F872
:101240000101012806D0FF2C0FD8185D68B10120DC
:101250002C7070BDD3F807013246214603F2071304
:1012600003442846BDE8704018474FF0FF3070BD7A
:10127000754600F0EBF8AE4605006946534620F08F
:101280000700854618B020B5FFF704F8BDE82040F8
:101290004FF000064FF000074FF000084FF0000B32
:1012A00021F00701AC46ACE8C009ACE8C009ACE8E5
:1012B000C009ACE8C0098D467047000010B500F0C9
:1012C00005F8001D10BD00BFB51F000000487047A5
:1012D000E40800202DE9F0411F460446032601687A
:1012E000072A01F4006004DB08B116A505E016A585
:1012F00003E008B115A500E015A521F0100020605D
:10130000A069C01EA0610FB1401EA0612046FFF77A
:1013100009F84FB1D4E9012138469047206A401CB2
:101320002062C01C206206E0206AFAE7D4E90121AD
:1013300015F8010B9047761EF8D22046FFF708F803
:10134000BDE8F0814E414E006E616E00494E460090
:10135000696E66002DE9F047814616468AB0354829
:1013600078440DC88DE80D0032487844801C03ACE9
:101370000DC884E80D0041F69B300844372190FBEE
:10138000F1F290FBF1F5A5F1800501FB12041B3C85
:1013900002D56442012000E00020DFF898A08046DA
:1013A0000027FA44AAF1BE0A0EE0E0070AD032464E
:1013B000684607EB470101230AEB810100F01BFBA4
:1013C0008DE8070064107F1C002CEED1194F7F447C
:1013D000AE3F19E0E80715D007EB04100DF1180A2D
:1013E00090E80E008AE80E00C068F04201D198191A
:1013F00008903246012306A903A800F0FCFA03ABCB
:1014000083E807006D10641C002DE3D14FF0010349
:1014100032466946B8F1000F03A802D000F0D6FAB0
:1014200001E000F0E8FAC9E90001C9F808200AB0B3
:10143000BDE8F0875C20000010B50446AFF30080E3
:101440002046BDE81040FEF710BF0000004870477E
:10145000C40800204FF0013C50F8042B51F8043B25
:101460009A4221D1A2EB0C03934313EACC1317D178
:1014700050F8042B51F8043B9A4215D1A2EB0C030F
:10148000934313EACC130BD150F8042B51F8043BCF
:101490009A4209D1A2EB0C03934313EACC13DBD09D
:1014A0004FF00000704700BFD01A01BAB1FA81F1C5
:1014B00001F0180122FA01F0CB40C1F12001DBB2AA
:1014C000C0B2C01A2CFA01F3D11A914311EAC31128
:1014D000E6D170475FEA400C08BF91F0000F4FEA79
:1014E0008C234FEAC12243EA51514FEA1C5018BFE6
:1014F00000F5F0404FEA300018BF41F000415FEACC
:101500006C5C00F02980BCF1FF3F08BF40F08040D8
:101510007047130C06BF12044FF0100C4FF0000C74
:10152000130E04BF12020CF1080C130F04BF1201BA
:101530000CF1040C930F04BF92000CF1020CD30FBA
:1015400004BF52000CF1010C11464FF00002A0F153
:101550001F00A0EB0C00704711F0004F08BF704750
:1015600031F000413FF4D5AF0B0C06BF09044FF03A
:10157000100C4FF0000C0B0E04BF09020CF1080C0C
:101580000B0F04BF09010CF1040C8B0F04BF890081
:101590000CF1020CCB0F04BF49000CF1010CCCF193
:1015A0002003A0EB0C0022FA03F302FA0CF241EA4A
:1015B000030100F10100704720F07F4C80EA030036
:1015C00023F07F47ACEB070303F57C5300F00040AA
:1015D00003F1FF032DE980494FEA154B09B44FEAA7
:1015E000144325EA0B4E24EA03480FF2042606EBC7
:1015F000132749083E785FEA320203FB0667C7F506
:10160000000707FB06F64FEA54374FEAD64606F1C5
:10161000020607FB066CCCF1005C4FEA1C472CEA83
:10162000074C07FB06F40CFB06F504EB15464FEAE6
:10163000961634BF00204FF000404FEAD13706FB2A
:1016400007FC4FEA1C4C0CFB0BF7D21B03FB0CF7FF
:1016500061EB07010CFB0EF7B0EB074072EB174292
:101660000CFB08F734BFA2EB0742B2EB074261EB79
:1016700017414FEA0C444FEA910706FB07FC4FEA7B
:101680001C4C0CFB0BF7B0EBC74072EB573203FB63
:101690000CF734BFA2EBC742B2EBC74261EB573144
:1016A0000CFB0EF7B0EBC70072EB57720CFB08F7A0
:1016B00034BFA2EBC702B2EBC70261EB5771039FC5
:1016C0004FEA816141EA921104EBCC044FEAD13731
:1016D0004FEA826206FB07FC42EA90124FEA806002
:1016E0004FEA1C4C0CFB0BF7D21B03FB0CF761EB16
:1016F00007010CFB0EF7B0EB074072EB17420CFB37
:1017000008F734BFA2EB0742B2EB074261EB174187
:101710004FEA8C554FEA910704EB9C2406FB07FC2B
:101720004FEA1C4C0CFB0BF7B0EBC74072EB573287
:1017300003FB0CF734BFA2EBC742B2EBC74261EB2D
:1017400057310CFB0EF7B0EBC70072EB57720CFB76
:1017500008F734BFA2EBC702B2EBC70261EB5771C7
:1017600015EB4C254FEA816141EA92114FEA826202
:101770004FEAD13742EA901206FB07FC44F100041D
:101780004FEA80604FEA1C4C0CFB0BF7D21B03FBAB
:101790000CF761EB07010CFB0EF7B0EB074072EBA7
:1017A00017420CFB08F734BFA2EB0742B2EB07422B
:1017B00061EB174115EB1C154FEA813141EA92416B
:1017C0004FEA823242EA90424FEA80304FEA0C768A
:1017D00044F1000448EA03434EEA0B484FF0000E80
:1017E000B2EB080C71EB030724BF624639464EEB9F
:1017F0000E0E4FF0000B0018524149414BEB0B0B02
:10180000B2EB080C71EB03077BF1000B24BF6246BF
:1018100039464EEB0E0E4FF0000B00185241494175
:101820004BEB0B0BB2EB080C71EB03077BF1000BDE
:1018300024BF624639464EEB0E0E51EA020718BF2E
:1018400046F0010616EB0E7655F1000254F1000148
:1018500003D5BDE88901BDE80088BDE88901BDE880
:101860000048B619524141EB0101A3F10103704751
:1018700080807F7E7D7C7B7A7978777676757473CD
:10188000727171706F6E6E6D6C6C6B6A6A6968688C
:10189000676666656464636362616160605F5F5E22
:1018A0005E5D5D5C5C5B5B5A5A5959585857575698
:1018B00056555555545453535252525151505050FD
:1018C0004F4F4F4E4E4D4D4D4C4C4C4B4B4B4A4A4F
:1018D0004A49494948484847474747464646454593
:1018E00045444444444343434342424242414141CC
:1018F000002B9C4630D477002BD01CB54FEA37071D
:1019000003B44FF010004FF01001BAF1000F06D0F1
:10191000BCF1000FDCBF40F0080040F008014FF0C0
:1019200000000FBCBDE810400BF1010BBBF1010F33
:1019300008BF5FEA170722BF12F1010211F101018E
:101940004FF0004143F1000300F0004043EA000083
:101950007047F9D35708D0E746EA064613F1400F1F
:101960004FEA16461FDD13F1200FDFBF16430A466C
:10197000002120335B42BED0C3F1200746EA064671
:1019800002FA07F74FEA164646EA0706C3F12007B0
:1019900022FA03F201FA07F721FA03F14FF00003EC
:1019A00042EA0702A7E746EA020646EA06464FEA87
:1019B000164646EA0106BCBF46EA0646360C4FF01C
:1019C00000034FF000024FF0000194E72DE9804C36
:1019D0009A46934670B491E8380007C831EA400C43
:1019E00048BF34EA430C03D5FFF7E6FDFFF780FF5D
:1019F000F0BCBDE8008C2DE9804C9A46934670B44B
:101A000091E8380007C810F0804F08BF13F0804FEE
:101A100003D100F005F8FFF76BFFF0BCBDE8008CC8
:101A200020F07F4780EA030023F07F4C07EB0C0394
:101A3000A3F57C5300F00040A3F1FE0392F0000FE9
:101A400000F0B38095F0000F00F077802DE9014998
:101A50004FEA11404FEA144621EA004800FB06FC19
:101A600024EA064708FB06F607FB08F800FB07F721
:101A700018EB06484CEB164C4FEA124B18EB074894
:101A80004FEA15464CEB174022EA0B4E0BFB06FCC7
:101A900025EA06470EFB06F607FB0EFE0BFB07F7D3
:101AA0001EEB064E4CEB164C4FF000061EEB074E9D
:101AB0004CEB174B18EB0B0840F1000018EB0E0B2A
:101AC00058EB000840F100008F1A4FF000013CBFB6
:101AD000C943661B14BFB5EB040C00213CBFC943CE
:101AE000F61B4FEA17444EEA8E0E27EA04454FEAEA
:101AF0001C4704FB07622CEA074C05FB07F70CFBAD
:101B000005F604FB0CFC16EB074642EB174216EBFE
:101B10000C4642EB1C421BEB060658EB020241410D
:101B200046EA9E0601D5BDE80189B619524141EB4E
:101B30000101A3F10103BDE801894FEA14454FEA11
:101B4000114724EA054621EA074C05FB07F406FB8A
:101B500007F70CFB06F105FB0CFC11EB074144EB0E
:101B600017444FEA124711EB0C4144EB1C4422EAA4
:101B7000074C05FB07F206FB07F70CFB06F605FB17
:101B80000CFC16EB074642EB174216EB0C4642EBF9
:101B90001C456A1854F1000148BF7047B6195241FC
:101BA00041EB0101A3F10103704795F0000F37D01D
:101BB0004FEA11424FEA144721EA024624EA074C51
:101BC00002FB07F106FB07F70CFB06F402FB0CFC1B
:101BD00014EB074441EB17414FEA154714EB0C4453
:101BE00041EB1C4125EA074C02FB07F506FB07F712
:101BF0000CFB06F602FB0CFC16EB074645EB174503
:101C000016EB0C4645EB1C42121951F1000148BF7E
:101C10007047B619524141EB0101A3F1010370472E
:101C20004FEA14454FEA114724EA054621EA074CDA
:101C300005FB07F106FB07F70CFB06F24FF0000669
:101C400005FB0CFC12EB074241EB174112EB0C4277
:101C500051EB1C4148BF7047921841EB0101A3F1C1
:101C60000103704710B504462CB900200E49887155
:101C70000E49C8700FE0012C03D108200A494871B1
:101C800004E0022C02D10C200749487101200649CA
:101C900088710649C87006480470034800F060F86F
:101CA000024800F027FC10BD140000201C0000209A
:101CB0002100002010B5102000F03EF870B3184845
:101CC000007801280AD117480078012802D10020A5
:101CD0001549088002201249087018E01048007861
:101CE000022814D10F480078012806D10E48008838
:101CF00040F400400C49088006E00A4800780228B9
:101D000002D10120074908700120054908700448E4
:101D10000078FFF7A7FF102000F008F810BD0000C2
:101D20002100002020000020380000200149086028
:101D30007047000014040140014600200022074BB8
:101D40001B6803EA0102054B14331B680B4013B1F7
:101D50000AB1012000E000207047000000040140AB
:101D6000002123498279002A3AD00A461268036882
:101D70009A430B461A600A1D126803689A430B1DAA
:101D80001A60027911440A6803681A430A60184A03
:101D90000832126803689A43154B08331A601A1DFB
:101DA000126803689A43124B0C331A604279102A66
:101DB0000ED11A1F126803681A430D4B08331A60BC
:101DC0001A1D126803681A43094B0C331A600DE0A0
:101DD0000749427911440A6803681A430A6005E01A
:101DE000027911440A6803689A430A607047000048
:101DF0000004014030B500228B071C0F0F2303FAAB
:101E000004F20B4B8C1053F824309343084C8D1084
:101E100044F8253023468C1053F824308C07240FC7
:101E200000FA04F42343024C8D1044F8253030BDF1
:101E3000080001402DE9F04102460025002600205F
:101E400000230024002791F803C00CF00F0591F83F
:101E500003C00CF0100CBCF1000F03D091F802C0CD
:101E60004CEA050591F800C0BCF1000F31D01468B0
:101E700000202BE04FF0010C0CFA00F3B1F800C089
:101E80000CEA03069E4220D183004FF00F0C0CFA9F
:101E900003F7BC4305FA03FC4CEA040491F803C0C1
:101EA000BCF1280F06D14FF0010C0CFA00FCC2F86F
:101EB00014C00AE091F803C0BCF1480F05D14FF0FF
:101EC000010C0CFA00FCC2F810C0401C0828D1D349
:101ED0001460B1F800C0BCF1FF0F34DD546800207D
:101EE0002EE000F1080C4FF0010808FA0CF3B1F8ED
:101EF00000C00CEA03069E4221D183004FF00F0C74
:101F00000CFA03F7BC4305FA03FC4CEA040491F80D
:101F100003C0BCF1280F05D100F1080C08FA0CF839
:101F2000C2F8148091F803C0BCF1480F07D100F14A
:101F3000080C4FF0010808FA0CF8C2F81080401C99
:101F40000828CED35460BDE8F0810000F0B50A4601
:101F5000002300240021002500F00046B6F1004FC8
:101F600002D11D4EF16901E01B4E7168C0F30345BB
:101F700083B200F44016B6F5401F08D121F070611D
:101F8000154E766826F07066134F7E6012E000F4FE
:101F90008016B6F5801F06D1032606FA05F4A14384
:101FA00041F0706106E0460D360103FA06F6B143D2
:101FB00041F0706122B1460D360103FA06F6314355
:101FC00000F00046B6F1004F02D1034EF16101E08E
:101FD000014E7160F0BD000000000140416170479A
:101FE000C160704738B5002401250121042000F0AC
:101FF000E3FA0121084600F0DFFA01213448FFF737
:10200000A5FF1020ADF8000028208DF80300032064
:102010008DF8020069462F48FFF70CFF04210020CD
:10202000FFF7E8FE0121082000F0C6FA1020ADF805
:1020300000008DF8030003208DF802006946264851
:10204000FFF7F8FE102025490860002008710820DD
:102050004871002088710846FFF782FE0A20204957
:10206000087002204870032088700020C87008465D
:1020700000F040FA00201B4908601B49C1F810011C
:1020800003E04FF4FA7000F0B3FE1848006800282F
:10209000F7D14FF4E13000F0F9FF01201149086059
:1020A000282000F0A5FE032407E0462210A111A07D
:1020B00000F0ECFE08B9002504E0201EA4F10101A7
:1020C000CCB2F2D100BF04B90125284638BD0000CA
:1020D0000002300000080140000C01401400002004
:1020E0001C00002090812142000021421001214269
:1020F0004F4B00004154000010B541F2707000F0E9
:1021000077FE06E016A0FEF7EBF84FF4FA7000F049
:102110006FFEFFF767FF0028F4D14FF4FA7000F06C
:1021200067FE012013490860282000F061FE0020AE
:1021300001F010F80020FFF795FD10200E490880EF
:1021400088700320C87005200871002048718871CC
:10215000C871072008720020487200F09FF810BD77
:10216000CEB4BCECB2E2B5BDC4A3BFE92121210AC3
:102170000D0000009081214208000020F0B587B0DA
:10218000064600243148C07968B9324630A131484A
:10219000FEF7B2F82F4930A000F000FF2D4930A023
:1021A000FEF79EF850E02948C07901284CD12F480D
:1021B000008885B22E4807782A0A2046611C8CB216
:1021C0002C490A542046611C8CB22A490D540846F9
:1021D0000755002406E02848015DE01C254A1154FB
:1021E000601C84B2052CF6D300240DE000BF402112
:1021F000224800F0EDFC0028F9D01E48015D1F4880
:1022000000F0B3FD601C84B2082CEFD31948C079EC
:1022100018498979174A5279164B1B79CDE9023250
:10222000CDE904101348C07812498978CDE900102F
:1022300010484378027812A11748FEF75DF80E485F
:102240000079401C0C49087107B0F0BD080000205F
:1022500025730000B600002025730D0A0000000061
:1022600053656E64A3BA25730D0A00002800002090
:102270002C00002098000020220000200048004090
:102280002578202578202578202578202578202578
:1022900078202578202578007E01002030B585B093
:1022A00000250021072000F071FF012000F052FFFF
:1022B00000BF3E4800680028FBD101203C4908606F
:1022C000282000F095FD00203A4908703A4800881F
:1022D000040A394805782B46224638A16846FEF79D
:1022E0000BF832223AA1684600F0D0FD324803795B
:1022F000827838A16846FDF7FFFF322234A1684694
:1023000000F0C4FD2C48C27836A16846FDF7F4FF02
:1023100032222FA1684600F0B9FD2748827935A105
:102320006846FDF7E9FF322229A1684600F0AEFDBC
:102330002148C27933A16846FDF7DEFF322224A18D
:10234000684600F0A3FD1C48427931A16846FDF7BC
:10235000D3FF32221EA1684600F098FD1648437A4A
:10236000027A2FA16846FDF7C7FF322218A16846FE
:1023700000F08CFD00202E49C1F89001282000F0CB
:1023800037FD00BF094800680028FBD129490880B3
:10239000012008490870084A517A107A00F0F6FEC8
:1023A0000120FFF75FFC05B030BD000010012142A5
:1023B00090812142200000200800002041542B4140
:1023C0004444523D253032782C25303278000000CC
:1023D0004F4B000041542B574C524154453D25640E
:1023E0002C25640041542B54504F5745523D2564D1
:1023F0000000000041542B43574D4F44453D256498
:102400000000000041542B544D4F44453D256400CD
:1024100041542B574C54494D453D25640000000064
:1024200041542B554152543D25642C256400000035
:10243000008021423800002070B504460D46002679
:1024400000BF04E0284600F027F8701C86B2A00107
:102450002D2190FBF1F0B042F4DC00F043F870BDA8
:1024600008B50121082000F0A7F84FF47070ADF80E
:10247000000010208DF8030003208DF8020069464B
:102480000448FFF7D7FC4FF470710248FFF7A6FD30
:1024900008BD0000000C014070B50546002475B170
:1024A000032409E00D4830F814100D48FFF798FD9B
:1024B000032000F09DFC641E002CF3DA0DE00024E4
:1024C00009E0064830F814100548FFF789FD03209D
:1024D00000F08EFC641C042CF3DB70BD4000002077
:1024E000000C014010B500210148FFF779FD10BD37
:1024F000000C014070B5002100230F22C47804B302
:10250000154C246804F4E064C4F5E064210AC1F1C8
:102510000403CA40447804FA03F184781440214348
:1025200009010E4C0678A155047804F01F0501241A
:10253000AC4005786D11AD0005F1E025C5F800410E
:1025400009E0047804F01F050124AC40044D06782E
:10255000761145F8264070BD0CED00E000E400E087
:1025600080E100E002490143024A11607047000027
:102570000000FA050CED00E029B1064AD2690243D9
:10258000044BDA6104E0034AD2698243014BDA6109
:10259000704700000010024029B1064A1269024348
:1025A000044B1A6104E0034A12698243014B1A6129
:1025B000704700000010024029B1064A92690243A8
:1025C000044B9A6104E0034A92698243014B9A6189
:1025D000704700000010024029B1064AD268024349
:1025E000044BDA6004E0034AD2688243014BDA60AC
:1025F000704700000010024030B500210022002486
:1026000000232D4D6D6805F00C0121B1042905D082
:10261000082923D105E0294D056022E0274D0560FA
:102620001FE0254D6D6805F47012234D6D6805F4AB
:102630008034022505EB92421CB9214D55430560BB
:102640000BE01D4D6D6805F400351DB11C4D554363
:10265000056002E0194D5543056002E0174D056025
:1026600000BF00BF144D6D6805F0F0010909154D5C
:102670006B5C0568DD4045600F4D6D6805F4E061F9
:10268000090A104D6B5C4568DD4085600A4D6D6838
:1026900005F46051C90A0B4D6B5C4568DD40C560AF
:1026A000054D6D6805F44041890B074D6B5CC568AD
:1026B000B5FBF3F5056130BD0010024000127A0051
:1026C00000093D00480000205800002010B500F02F
:1026D00001F810BD0CB5002001900090334800684F
:1026E00040F480303149086000BF3048006800F491
:1026F000003000900198401C0190009818B9019892
:10270000B0F5A06FF1D12948006800F4003010B195
:102710000120009001E0002000900098012843D1A2
:102720002348006840F0100021490860084600680E
:1027300020F0030008600846006840F002000860CE
:102740001A48406819494860084640684860084689
:10275000406840F4806048600846406820F47C107F
:1027600048600846406840F4E81048600846006841
:1027700040F08070086000BF0C48006800F00070F6
:102780000028F9D00948406820F003000749486054
:102790000846406840F00200486000BF03484068B7
:1027A00000F00C000828F9D10CBD00000010024018
:1027B00000200240042808D14FF0E021096941F0CF
:1027C00004014FF0E022116107E04FF0E0210969B8
:1027D00021F004014FF0E0221161704710B5134859
:1027E000006840F00100114908600846406810493F
:1027F00008400E494860084600680E4908400B49E9
:1028000008600846006820F4802008600846406898
:1028100020F4FE0048604FF41F008860FFF756FF69
:102820004FF000600449086010BD00000010024035
:102830000000FFF8FFFFF6FE08ED00E010B50121F3
:10284000094800F054F868B10121074800F040F849
:102850000648008840F400400449088000210248EE
:1028600000F039F810BD00000004004038000020DE
:102870007FB505460C4601210220FFF77DFEADF82D
:102880000450ADF800400020ADF80600ADF802009D
:1028900069460E4800F048F8012211460B4800F046
:1028A00037F80121094800F016F81D208DF80C00BA
:1028B00000208DF80D0002208DF80E0001208DF80B
:1028C0000F0003A8FFF716FE7FBD000000040040C4
:1028D000CA430282704721B1028842F0010202809D
:1028E00004E002884FF6FE731A400280704730B54C
:1028F0000246002000230024158A05EA0103958979
:1029000005EA010413B10CB1012000E0002030BD44
:102910001AB183890B43838102E083898B438381CE
:102920007047818470470000002202881D4B984246
:102930000ED01D4B98420BD0B0F1804F08D01B4BEE
:10294000984205D01A4B984202D01A4B984204D1B3
:102950004FF68F731A404B881A43174B984207D093
:10296000164B984204D04FF6FF431A40CB881A43C7
:1029700002808B8883850B8803850A4B98420BD095
:10298000094B984208D00E4B984205D00D4B984207
:1029900002D00D4B984201D10B7A0386012383822A
:1029A00070470000002C014000340140000400404A
:1029B00000080040000C00400010004000140040DF
:1029C00000400140004401400048014010B540F281
:1029D0002551244800F009F9002842D0214800F090
:1029E000BFF9C4B2204801780078401C1E4A10701C
:1029F0001E4844540A2C03D100201C4912788854E4
:102A00001B48008800F4004058BB1948008800F4B7
:102A1000804060B10A2C03D000201549088020E0D6
:102A20001348008840F400401149088019E00D2C3B
:102A300006D10F48008840F480400D49088010E01E
:102A40000B480088C0F30D000A490C540848008860
:102A5000401C0749088008460088C72801DD00207F
:102A6000088010BD003801400000002070000020E8
:102A7000340000209201002010B540F22551214879
:102A800000F0B3F800283BD01E4800F069F9C4B24A
:102A90001D48008800F4004058BB1B48008818B946
:102AA00000201A4908800AE017480088401E18498B
:102AB000085C0A2803D11448008814490880124889
:102AC0000088B0F5806F15DA1248007850B90021FF
:102AD0001148FFF726FF0C48008818B901210E485D
:102AE000FFF7F9FE08490888411C074A1180084988
:102AF0000C5405E00448008840F400400249088076
:102B000010BD000000480040380000203A000020BE
:102B10005C020020200000200004004021B18289D6
:102B200042F40052828104E082894DF6FF731A401C
:102B30008281704710B504462048844209D10121A2
:102B40008803FFF749FD00214FF48040FFF744FD63
:102B500032E01B48844209D101214804FFF71CFDE3
:102B600000214FF40030FFF717FD25E0154884429F
:102B700009D101218804FFF70FFD00214FF48020C7
:102B8000FFF70AFD18E01048844209D10121C8046A
:102B9000FFF702FD00214FF40020FFF7FDFC0BE0E2
:102BA0000A48844208D101210805FFF7F5FC0021FD
:102BB0004FF48010FFF7F0FC10BD0000003801401A
:102BC0000044004000480040004C004000500040DD
:102BD00002460020B1F5007F00D100BF13880B40F2
:102BE0000BB1012000E00020704770B502460024C0
:102BF00000230025002040F66A16B14200D100BF34
:102C0000C1F3421501F01F03012606FA03F3012D5B
:102C100002D19689334006E0022D02D1168A334054
:102C200001E0968A33400C12012606FA04F4168855
:102C3000344013B10CB1012000E0002070BDF0B5AC
:102C40000346002400260025002040F66A17B942FA
:102C500000D100BF1846C1F3421401F01F0601273E
:102C600007FA06F5012C01D10C3004E0022C01D149
:102C7000103000E014301AB107682F43076002E0FB
:102C80000768AF430760F0BD2DE9F04786B0054601
:102C90000E460024A24600BFA1460027B08900B11D
:102CA00000BF2F462C8A4CF6FF700440F088044386
:102CB0002C82AC894EF6F3100440B0883189084369
:102CC000718908430443AC81AC8A4FF6FF4004404D
:102CD000B0890443AC8201A8FFF78EFC1F488742ED
:102CE00002D1DDF810A001E0DDF80CA0A88900F405
:102CF000004040B10AEBCA0000EB0A1031684900FD
:102D0000B0FBF1F807E00AEBCA0000EB0A103168EB
:102D10008900B0FBF1F86420B8FBF0F00401200951
:102D2000642101FB1089A88900F4004040B13220E1
:102D300000EBC900B0FBF1F000F00700044308E02D
:102D4000322000EB09106421B0FBF1F000F00F001D
:102D500004432C8106B0BDE8F08700000038014034
:102D600001468888C0F308007047C1F308028280DA
:102D70007047490050EAC12018BF04204A0D18BF0F
:102D800040F0010040F2FF72B2EB515F08BF40F02B
:102D90000200012808BF0520704730380A2801D2F8
:102DA000012070470020704700BF704710B56FF0DA
:102DB0000400FFF7FFFC0A4800680A49B0FBF1F085
:102DC000094908700846007800EB4001C1EBC010CB
:102DD0004FF6FF7101EAC0000449088010BD0000F1
:102DE0005C00002000127A00020000200400002095
:102DF0000146114A12884A434FF0E0235A610022EB
:102E00009A611A46126942F001021A6100BF4FF03E
:102E1000E022106900F001021AB100F48032002AA9
:102E2000F5D04FF0E022126922F001024FF0E023CA
:102E30001A6100229A6170470400002000BF054A11
:102E4000128802F04002002AF9D0C2B2014B1B1DC9
:102E50001A8070470038014070B5044600250948C3
:102E6000008800F4004058B1002006490988C1F3E9
:102E70000E01054A505421461046FDF7EDFB05466C
:102E8000284670BD380000205C0200202DE9F0418A
:102E900004460E4615460027002018490880FF2CDE
:102EA0000AD800BF1648008800F040000028F9D07A
:102EB0001349091D0C8003E0214612A000F06EF8B2
:102EC000C6B1BDB10FE00A20FFF792FF0B480088A2
:102ED00000F4004038B13046FFF7BEFF00B106E015
:102EE000002006490880681E80B2051EEBD100BF95
:102EF00005B901273846BDE8F08100003800002000
:102F00000048004025730D0A000000008AB0282206
:102F10001B496846FDF7D1FB4FF4A060FFF722FB89
:102F2000FFF744FFFFF79CFA4FF4E13000F05EF842
:102F30004FF4E13000F0AAF8FFF7DEF81EE0114888
:102F400011490978405C68B90F48007850B10D4AC2
:102F50000EA16846FDF7D0F900200B4908706846BD
:102F6000FFF70CF969460AA0FDF7BAF90121B42070
:102F7000FFF762FA4FF47A70FFF73AFFDFE70000DD
:102F8000B03200087000002000000020257300000F
:102F900053656E64A3BA2573000000000FB438B502
:102FA00005A800900F48009A0499FDF787F90020C2
:102FB00000900C48FDF762FB85B200240DE000BFD5
:102FC00040210948FFF704FE0028F9D00548015DBB
:102FD0000548FFF7CAFE601C84B2AC42EFDB38BC88
:102FE0005DF814FB5C0600200048004010B586B078
:102FF0000446012144F20400FFF7DEFA4FF40070AA
:10300000ADF8140003208DF8160018208DF8170075
:1030100005A91C48FEF70EFF4FF48060ADF81400C0
:1030200004208DF8170005A91648FEF703FF252098
:103030008DF8000003208DF801008DF802000120BA
:103040008DF803006846FFF755FA01940020ADF8AB
:103050000800ADF80A00ADF80C00ADF810000C2027
:10306000ADF80E0001A90848FFF70EFE012240F25C
:1030700025510548FFF7E3FD01210348FFF74EFD09
:1030800006B010BD00080140003801401CB50446E0
:1030900001210820FFF790FA01218804FFF76CFA5C
:1030A0002748FFF747FD4FF48060ADF8000003208C
:1030B0008DF8020018208DF8030069462148FEF7BC
:1030C000B9FE4FF40060ADF8000048208DF8030011
:1030D00069461C48FEF7AEFE1B48046000201A49F2
:1030E0008880C880088188810C2048811448FFF7B7
:1030F000CBFD01211248FFF711FD012240F22551BD
:103100000F48FFF79CFD27208DF8040002208DF862
:10311000050003208DF8060001208DF8070001A8A6
:10312000FFF7E8F941F61F416320FFF7A1FB0020FC
:103130000649088000210648FFF7CDFB1CBD0000B2
:1031400000480040000C0140B40800203800002076
:103150000004004010B5044600210A48FFF7DEFCD9
:103160001CB10C200849488102E00820064948812A
:1031700005490448FFF788FD01210248FFF7CEFC0E
:1031800010BD000000480040B408002070B505469E
:103190000C46082D2DD2DFE805F004090E13181D8A
:1031A00022274FF496602749086022E04FF416600A
:1031B000244908601DE04FF496502249086018E049
:1031C0004FF416501F49086013E04FF496401D4914
:1031D00008600EE04FF416401A49086009E04FF409
:1031E00061401849086004E04FF4E1301549086077
:1031F00000BF00BF00211448FFF790FC1148006891
:10320000124908600020C88014B9888008810FE046
:10321000012C05D120030D4988808010088107E02A
:10322000022C05D1E002094988804FF4C060088172
:1032300006490548FFF728FD01210348FFF76EFC0A
:1032400070BD00003C00002000480040B408002091
:1032500010B500290AD00878002807D0054878441E
:10326000FEF7F8F8002801D0002010BD024878448D
:1032700010BD00009A0100009201000010B5002965
:103280000AD00878002807D005487844FEF7E2F80D
:10329000002801D0002010BD0248784410BD000075
:1032A0008A01000082010000FDF7F4BCFDF728BE92
:1032B000323068656C6C6F0D0A0000000000000081
:1032C00000000000000000000000000000000000FE
:1032D0000000000000000000303132333435363752
:1032E000383941424344454640305800303132334A
:1032F000343536373839616263646566403078004A
:1033000004000008000000000000000200010000AE
:1033100010000000000000000000000030313233D7
:1033200034353637383961626364656678700030E9
:1033300031323334353637383941424344454658C3
:103340005000000002400000000000A0000000004B
:1033500005400000000000C8000000000C40000014
:103360000000409C00000000194000000020BCBE8E
:103370000000000034400000BFC91B8E00000004A4
:10338000B5400000504BCFD06607E2CF01000000EF
:103390006C4100003E8251AADFEEA734010000001C
:1033A000D9420000DCB5A0E23A301F97FFFFFFFFD3
:1033B000B4450000FD25A0C8E9A3C14FFFFFFFFFF2
:1033C000FF3F00000000008000000000FF3F000001
:1033D00000000080000000002435000800000020EC
:1033E000700000006C010008943500087000002097
:1033F000B80E0000880100081C0000004300000017
:10340000F8FFFFFF0C0000000E0000000F0000009E
:103410002E0000001001000043000000F8FFFFFF35
:1034200000404040404040404040414141414140D7
:10343000404040404040404040404040404040408C
:10344000400502020202020202020202020202021B
:103450000220202020202020202020020202020220
:103460000202909090909090101010101010101078
:103470001010101010101010101010100202020284
:1034800002028888888888880808080808080808C8
:1034900008080808080808080808080802020202C4
:1034A00040000000000000000000000000000000DC
:1034B000000000000000000000000000000000000C
:1034C00000000000000000000000000000000000FC
:1034D00000000000000000000000000000000000EC
:1034E00000000000000000000000000000000000DC
:1034F00000000000000000000000000000000000CC
:1035000000000000000000000000000000000000BB
:1035100000000000000000000000000000000000AB
:103520000000000000000000000000000000170084
:103530000400000003000000000000000000000084
:10354000000000000000112233445500200000005C
:10355000100000000000000000000000000000005B
:10356000000000000020000180004000000000007A
:103570000102030401020304060708090204060805
:1035800000A24A0400000000000000000102030441
:043590000607080919
:0400000508000131BD
:00000001FF
