:020000040800F2
:10000000480400204501000871040008A10400080C
:10001000A5040008A9040008AD04000800000000C1
:10002000000000000000000000000000B104000813
:10003000B304000800000000B5040008B70400087D
:100040005F0100085F0100085F0100085F01000810
:100050005F0100085F0100085F010008BD0400089F
:10006000BF040008C10400085F0100085F01000828
:100070005F0100085F0100085F0100085F010008E0
:100080005F0100085F0100085F0100085F010008D0
:100090005F0100085F0100085F010008BB04000861
:1000A0005F0100085F0100085F0100085F010008B0
:1000B0005F010008B90400085F0100085F01000843
:1000C0005F0100085F0100085F0100085F01000890
:1000D0005F010008730400085F0100085F01000869
:1000E0005F0100085F0100085F0100085F01000870
:1000F0005F0100085F0100085F0100085F01000860
:100100005F0100085F0100085F0100085F0100084F
:100110005F0100085F0100085F0100085F0100083F
:100120005F0100085F0100085F0100085F0100082F
:10013000DFF80CD001F0DEFD004800475502000852
:10014000480400200648804706480047FEE7FEE7CF
:10015000FEE7FEE7FEE7FEE7FEE7FEE7FEE7FEE777
:100160003B1700083101000870B504460D46E1B2A6
:10017000584801F0ABF900BF8021564801F014FA4D
:100180000028F9D0204670BD08B54FF4C06000F0DB
:10019000F3FF25208DF8000000208DF801000120DC
:1001A0008DF802008DF80300684600F0EAFF08BDF4
:1001B0001FB54FF4165000900020ADF80400ADF8C4
:1001C0000600ADF80800ADF80C000C20ADF80A00F0
:1001D0006946404801F081F8012240F225513D482E
:1001E00001F013F901213B4801F003F9402139489E
:1001F00001F0E7F91FBD08B54FF40070ADF800003D
:1002000003208DF8020018208DF80300694632485B
:1002100000F092FC4FF48060ADF8000004208DF8EF
:10022000030069462C4800F087FC08BD10B501F0BA
:1002300084FA0121042000F03BFF0121082000F096
:1002400037FF0121880300F033FF0121084600F049
:100250002FFF10BDFFF7EAFFFFF7CDFFFFF7A8FF65
:10026000FFF792FF00F030F9022000F0DAF800F01A
:100270009CFA00F0E9FA2CE000F004FB1748B0F912
:100280000430B0F90220B0F9001015A001F044FDCF
:100290001A48B0F90430B0F90220B0F9001018A0E3
:1002A00001F03AFD1F48B0F900101FA001F034FD25
:1002B0002148B0F90430B0F90220B0F900101FA0B5
:1002C00001F02AFD21A001F027FD4FF4FA7000F0A3
:1002D0008CF8D1E700380140000801400000002000
:1002E0000A4163633A2538642020202025386420A1
:1002F0002020202538642020202000000600002037
:10030000202020202020202067726F3A253864208A
:10031000202020253864202020202538642020201B
:100320002000000018000020202020202054656DAF
:10033000703A2538640000000C0000202538642045
:100340002020253864202020253864000A00000081
:1003500010B500F03FFD4FF4803000F05BFD00F081
:1003600098FD012820D1002000F0D9FD002000F0E8
:10037000E8FD4FF4806000F0DBFD4FF4E0114FF436
:10038000803000F0AFFD012000F0B8FD00BF392043
:1003900000F063FD0028FAD0022000F0B2FD00BF9B
:1003A00000F0B8FD0828FBD110BD00E0401E002879
:1003B000FCD17047014601EBC1024FF0E0235A61C6
:1003C00000229A6101221A6100BF4FF0E0221069F9
:1003D00000F001021AB100F48032002AF5D00022A8
:1003E0004FF0E0231A619A617047014642F22832C9
:1003F0004A434FF0E0235A6100229A6101221A61B8
:1004000000BF4FF0E022106900F001021AB100F4C1
:100410008032002AF5D000224FF0E0231A619A6161
:10042000704710B50146114B4FF0E0246361002383
:10043000A3610123236100220FE000BF4FF0E023FE
:10044000186900F001031BB100F48033002BF5D0D4
:10045000064B4FF0E0246361521C8A42EDD3002327
:100460004FF0E0242361A36110BD000040548900D7
:10047000704710B540F22551124801F0ABF870B149
:10048000104801F027F8044621460E4801F01EF8F6
:1004900000BF80210B4801F087F80028F9D010BD7B
:1004A00000BFFEE700BFFEE700BFFEE700BFFEE7BC
:1004B0007047704770477047704770477047704784
:1004C000704700000038014008B5C020ADF80000BA
:1004D00003208DF8020010208DF8030069468B4838
:1004E00000F02AFB4021894800F0D3FB8021874897
:1004F00000F0CFFB08BD08B58020ADF80000032058
:100500008DF8020010208DF8030069467F4800F046
:1005100013FB08BD08B58020ADF8000048208DF819
:1005200003006946794800F007FB08BD10B5FFF7E6
:10053000E2FF8021754800F0ACFB4021734800F0D9
:10054000A8FB0520FFF736FF8021704800F0A3FBD1
:100550000520FFF72FFF40216C4800F09CFB10BDE9
:1005600010B5FFF7C8FF8021684800F094FB012018
:10057000FFF720FF4021654800F08BFB0520FFF7C7
:1005800019FF8021614800F084FB0520FFF712FF6E
:1005900010BD10B540215D4800F07DFBFFF7ABFFBB
:1005A00080215A4800F077FB0220FFF703FF40212B
:1005B000564800F06EFB0520FFF7FCFE4021534833
:1005C00000F069FB10BD10B54021504800F063FBFE
:1005D000FFF791FF80214D4800F05BFB0220FFF701
:1005E000E9FE4021494800F054FB0520FFF7E2FEF8
:1005F0004021464800F04FFB10BD10B50024FFF726
:1006000089FF8021414800F044FB40213F4800F031
:1006100042FB0120FFF7CEFE40213C4800F039FBB1
:100620000120FFF7C7FE07E0601CC4B2FF2C03DD0A
:10063000FFF796FF002010BD8021344800F00FFB2B
:100640000028F1D14021314800F025FB0120F2E7DC
:1006500070B504460025FFF74EFF40212B4800F0FF
:100660001AFB00BF21E004F08000002804DD802197
:10067000264800F00EFB03E08021244800F00BFB2D
:100680000220FFF797FE6006040E40211F4800F08D
:1006900000FB0520FFF78EFE40211C4800F0FBFA0E
:1006A0000520FFF787FE681CC5B2082DDBDB70BD97
:1006B00070B50546002600240220FFF77BFEFFF7F9
:1006C00029FF00BF18E04021104800F0E4FA0120A3
:1006D000FFF770FE40210D4800F0DBFA6006040EC3
:1006E00080210A4800F0BBFA08B1601CC4B20120A6
:1006F000FFF760FE701CC6B2082EE4DB15B9FFF7E9
:1007000062FF01E0FFF745FF204670BD000C01408D
:1007100070B506460C461546FFF708FF3046FFF752
:1007200097FFFFF76AFF08B9002070BD2046FFF76A
:100730008FFFFFF762FF08B90020F6E72846FFF7B2
:1007400087FFFFF75AFF08B90020EEE7FFF708FF21
:100750000520FFF72FFE0120E7E770B504460D46A0
:10076000FFF7E4FE2046FFF773FFFFF746FF08B9E7
:10077000002070BD2846FFF76BFFFFF73EFF08B96A
:100780000020F6E7FFF7D2FE611CC8B2FFF760FF5A
:10079000FFF733FF08B90020EBE70020FFF788FFE1
:1007A0000646FFF7DDFE3046E3E710B500226B2179
:1007B000D020FFF7ADFF02223721D020FFF7A8FF9E
:1007C00007226A21D020FFF7A3FF07221921D0209A
:1007D000FFF79EFF06221A21D020FFF799FF18226B
:1007E0001B21D020FFF794FF01221C21D020FFF70E
:1007F0008FFF10BD2DE9F04105460C4621462846E5
:10080000FFF7ABFF0646601CC1B22846FFF7A5FF05
:10081000074607EB062000B2BDE8F0812DE9F04164
:1008200005460C460026002721462846FFF795FF7F
:100830000746601CC1B22846FFF78FFF064607EB4C
:10084000062000B2BDE8F08110B50F220A21182061
:10085000FFF75EFF10211820FFF77FFF7E49088019
:1008600011211820FFF779FF7B49488012211820B9
:10087000FFF773FF7849888000220A211820FFF7CC
:1008800047FF10BD2DE9F04786B04FF0000A3B212D
:10089000D020FFF7AFFF714908803D21D020FFF73E
:1008A000A9FF6E4948803F21D020FFF7A3FF6B4985
:1008B00088804321D020FFF79DFF694908804521AA
:1008C000D020FFF797FF664948804721D020FFF7E7
:1008D00091FF634988804121D020FFF78BFF614958
:1008E000088001220A211820FFF712FF00BF022111
:1008F0001820FFF732FF0028F9D003211820FFF756
:100900008DFF5949088005211820FFF787FF5649B8
:10091000488007211820FFF781FF5349888009216B
:100920001820FFF71AFF4FFA80FA0AF00400042893
:1009300003D00AF00800082805D146F6FF704A499E
:1009400008804880888000220A211820FFF7E0FEF6
:100950004149B1F90010A1F1800001F0F7F800223F
:10096000424BCDE9000101F010F806460022404B51
:1009700001F07DF8044600223E4B00F05FFFCDE918
:1009800004013949B1F9000001F0E0F8CDE90201B4
:10099000DDE9042300F0F9FF804601F0E8F800B239
:1009A000314908802C49B1F90210A1F1800001F011
:1009B000CDF800222D4BCDE9000100F0E6FF804686
:1009C00000222B4B01F053F806460022294B00F081
:1009D00035FF04460D462449B1F9020001F0B6F88E
:1009E00022462B46CDE9020100F0CFFFCDE90401FC
:1009F00001F0BDF800B21C4948801749B1F9041054
:100A0000A1F1800001F0A2F80022184BCDE900010D
:100A100000F0BBFF06460022154B01F028F800222B
:100A2000144BCDE9020100F009FF04460D460E49C2
:100A3000B1F9040001F08AF8804622462B4600F006
:100A4000A4FFCDE9040101F092F800B206498880C4
:100A500006B0BDE8F0870000120000200000002072
:100A600006000020180000200C0000200000E03FDD
:100A7000000060400000F03F10B50446CC488442BE
:100A800008D10121042000F02DFB0021042000F0FA
:100A900029FB46E0C748844208D10121082000F024
:100AA00021FB0021082000F01DFB3AE0C2488442EF
:100AB00008D10121102000F015FB0021102000F0CA
:100AC00011FB2EE0BD48844208D10121202000F016
:100AD00009FB0021202000F005FB22E0B8488442F9
:100AE00008D10121402000F0FDFA0021402000F053
:100AF000F9FA16E0B348844208D10121802000F0C1
:100B0000F1FA0021802000F0EDFA0AE0AE488442BC
:100B100007D10121801500F0E5FA0021A01500F0B1
:100B2000E1FA10BD10B50121084600F0DBFA002102
:100B3000012000F0D7FA10BD2DE9F0410246002552
:100B40000026002000230024002791F803C00CF0A9
:100B50000F0591F803C00CF0100CBCF1000F03D08E
:100B600091F802C04CEA050591F800C0BCF1000FF5
:100B700031D0146800202BE04FF0010C0CFA00F388
:100B8000B1F800C00CEA03069E4220D183004FF06A
:100B90000F0C0CFA03F7BC4305FA03FC4CEA0404FF
:100BA00091F803C0BCF1280F06D14FF0010C0CFAEC
:100BB00000FCC2F814C00AE091F803C0BCF1480F71
:100BC00005D14FF0010C0CFA00FCC2F810C0401C1B
:100BD0000828D1D31460B1F800C0BCF1FF0F34DD98
:100BE000546800202EE000F1080C4FF0010808FACC
:100BF0000CF3B1F800C00CEA03069E4221D1830039
:100C00004FF00F0C0CFA03F7BC4305FA03FC4CEA57
:100C1000040491F803C0BCF1280F05D100F1080CC1
:100C200008FA0CF8C2F8148091F803C0BCF1480F20
:100C300007D100F1080C4FF0010808FA0CF8C2F8CF
:100C40001080401C0828CED35460BDE8F0814FF6D8
:100C5000FF710180022181700421C170704702463A
:100C6000002093680B400BB1012000E0002070478A
:100C70000146886880B2704702460020D3680B4066
:100C80000BB1012000E0002070470146C86880B227
:100C9000704701617047416170470AB1016100E02E
:100CA00041617047C16070474FF480320A438261EE
:100CB0008161826182698269704702460020434BEC
:100CC00018684FF68073184040EA021008433F4B03
:100CD000186070473E49C8617047F0B50A46002366
:100CE00000240021002500F00046B6F1004F02D19B
:100CF000364EF16901E0354E7168C0F3034583B2A9
:100D000000F44016B6F5401F08D121F070612F4E57
:100D1000766826F070662D4F7E6012E000F4801633
:100D2000B6F5801F06D1032606FA05F4A14341F06B
:100D3000706106E0460D360103FA06F6B14341F054
:100D4000706122B1460D360103FA06F6314300F018
:100D50000046B6F1004F02D11C4EF16101E01B4E7E
:100D60007160F0BD30B500228B071C0F0F2303FA12
:100D700004F2164B08338C1053F824309343134C71
:100D800008348D1044F8253023468C1053F8243055
:100D90008C07240F00FA04F423430C4C08348D1004
:100DA00044F8253030BD0A49DC3108607047000046
:100DB00000080140000C01400010014000140140F7
:100DC00000180140001C01400020014000000140CB
:100DD00000002042DF48006840F00100DD49086063
:100DE00008464068DC490840DA494860084600681F
:100DF000DA490840D74908600846006820F4802096
:100E000008600846406820F4FE0048604FF41F0068
:100E100088607047CF49096821F48031CD4A11605C
:100E20001146096821F480211160B0F5803F03D09C
:100E3000B0F5802F0ED106E0C649096841F4803133
:100E4000C44A116007E0C349096841F4A021C14ABE
:100E5000116000E000BF00BF704710B501460022DE
:100E6000002300204A11012A02D1BA4C236806E06F
:100E7000022A02D1B74C236A01E0B64C636A01F042
:100E80001F02012494401C400CB1012000E000200E
:100E900010BD38B5002000900024002500BF31208F
:100EA000FFF7DBFF05460098401C00900098B0F566
:100EB000A06F01D0002DF2D03120FFF7CEFF08B196
:100EC000012400E00024204638BD01460020A14A4C
:100ED000106820F0F80040EAC10010607047A04997
:100EE00008607047024600209A4B586820F47C1036
:100EF00042EA01031843974B5860704798490866C7
:100F0000704701460020934A506820F003000843D0
:100F1000506070478F48406800F00C0070470146F1
:100F200000208C4A506820F0F00008435060704761
:100F300001460020874A506820F4E0600843506072
:100F4000704701460020834A506820F4605040EA10
:100F5000C1005060704729B17E4A527A02437D4BEE
:100F60005A7204E07B4A527A82437A4B5A72704733
:100F70007B49D8310860704701460020754A5068A7
:100F800020F440400843506070470021714A2032ED
:100F90001170704A82F82010012802D004280AD16A
:100FA00004E001216B4A2032117005E00521694AF5
:100FB0002032117000E000BF00BF7047694908602F
:100FC00070476449096A0143624A11627047654982
:100FD00044390860704730B5002100220024002306
:100FE0005C4D6D6805F00C0121B1042905D008297C
:100FF00023D105E05C4D056022E05B4D05601FE0FC
:10100000544D6D6805F47012524D6D6805F48034CE
:10101000022505EB92421CB9544D554305600BE087
:101020004C4D6D6805F400351DB1504D55430560BC
:1010300002E04D4D5543056002E04B4D056000BF99
:1010400000BF444D6D6805F0F0010909484D6B5C27
:101050000568DD4045603F4D6D6805F4E061090AB3
:10106000434D6B5C4568DD4085603A4D6D6805F425
:101070006051C90A3E4D6B5C4568DD40C560354D29
:101080006D6805F44041890B3A4D6B5CC568B5FB52
:10109000F3F5056130BD29B12E4A526902432D4B4B
:1010A0005A6104E02B4A526982432A4B5A617047C5
:1010B00029B1284A92690243264B9A6104E0254AE5
:1010C00092698243234B9A61704729B1214AD269C0
:1010D0000243204BDA6104E01E4AD26982431D4B71
:1010E000DA61704729B11B4AD2680243194BDA60B2
:1010F00004E0184AD2688243164BDA60704729B17F
:10110000144A12690243134B1A6104E0114A12692E
:101110008243104B1A61704712494039086070478A
:101120000F49C86470470B49C87170470948406A45
:1011300040F0807007494862704701460020054A28
:1011400092680A400AB1012000E00020704701497E
:1011500088727047001002400000FFF8FFFFF6FEA3
:10116000000042428004424200127A0000093D0021
:101170001A0000202A00002031490143314A116041
:10118000704770B5002100230F22C47804B32D4CA2
:10119000246804F4E064C4F5E064210AC1F10403A6
:1011A000CA40447804FA03F18478144021430901C9
:1011B000254C0678A155047804F01F050124AC40A5
:1011C00005786D11AD0005F1E025C5F8004109E095
:1011D000047804F01F050124AC401C4D06787611FC
:1011E00045F8264070BD1A4A0A400243154B1B1FA2
:1011F0001A60704739B1134A121D12680243114B2D
:101200001B1D1A6006E00F4A121D126882430D4B27
:101210001B1D1A607047042808D14FF0E0210969AE
:1012200041F004014FF0E022116107E04FF0E021AE
:10123000096921F004014FF0E022116170470000BC
:101240000000FA050CED00E000E400E080E100E0C1
:1012500080FFFF1F10B50446FB48844209D10121DD
:101260008803FFF73FFF00214FF48040FFF73AFF6C
:1012700032E0F648844209D101214804FFF73FFFDC
:1012800000214FF40030FFF73AFF25E0F048844298
:1012900009D101218804FFF732FF00214FF480209B
:1012A000FFF72DFF18E0EB48844209D10121C80463
:1012B000FFF725FF00214FF40020FFF720FF0BE090
:1012C000E548844208D101210805FFF718FF0021F5
:1012D0004FF48010FFF713FF10BD2DE9F04786B0E3
:1012E00005460E460024A24600BFA1460027B0894D
:1012F00000B100BF2F462C8A4CF6FF700440F088E6
:1013000004432C82AC894EF6F3100440B088318936
:101310000843718908430443AC81AC8A4FF6FF400F
:101320000440B0890443AC8201A8FFF754FEC648CC
:10133000874202D1DDF810A001E0DDF80CA0A889F9
:1013400000F4004040B10AEBCA0000EB0A1031681B
:101350004900B0FBF1F807E00AEBCA0000EB0A1005
:1013600031688900B0FBF1F86420B8FBF0F00401AB
:101370002009642101FB1089A88900F4004040B1D4
:10138000322000EBC900B0FBF1F000F0070004438D
:1013900008E0322000EB09106421B0FBF1F000F00E
:1013A0000F0004432C8106B0BDE8F0874FF41651BE
:1013B000016000218180C18001810C2141810021D7
:1013C0008181704710B502460020108A4FF2FF035A
:1013D00018400B884C8823438C882343CC882343B4
:1013E0001843108210BD0021018041808180C1809E
:1013F000704721B1828942F40052828104E08289DF
:101400004DF6FF731A4082817047F0B50346002401
:1014100000260025002040F66A17B94200D100BF1F
:101420001846C1F3421401F01F06012707FA06F51A
:10143000012C01D10C3004E0022C01D1103000E06D
:1014400014301AB107682F43076002E00768AF4302
:101450000760F0BD1AB1838A0B43838202E0838A5E
:101460008B4383827047028A4FF6F0731A400282E0
:10147000028A0A430282704782894FF2FF731A4040
:10148000828182890A438281704721B1828942F038
:101490000202828104E082894FF6FD731A40828144
:1014A0007047028A4FF6DF731A400282028A0A43AB
:1014B0000282704721B1028A42F48042028204E033
:1014C000028A4BF6FF731A4002827047C1F308028A
:1014D0008280704701468888C0F308007047818980
:1014E00041F0010181817047028BD2B20283028BED
:1014F00042EA012202837047028B02F47F42028398
:10150000028B0A430283704721B1828A42F0200293
:10151000828204E0828A4FF6DF731A40828270472B
:1015200021B1828A42F01002828204E0828A4FF660
:10153000EF731A408282704721B1828A42F008021A
:10154000828204E0828A4FF6F7731A4082827047E3
:1015500021B1828942F40042828103E08289C2F390
:101560000E028281704721B1828A42F40062828237
:1015700004E0828A4FF2FF731A4082827047828AA7
:101580004FF6FB731A408282828A0A438282704736
:1015900021B1828A42F00202828204E0828A4FF6FE
:1015A000FD731A408282704702460020B1F5007F29
:1015B00000D100BF13880B400BB1012000E00020D8
:1015C000704701F40072B2F5007F00D100BFCA433A
:1015D0000280704770B502460024002300250020D9
:1015E00040F66A16B14200D100BFC1F3421501F0C6
:1015F0001F03012606FA03F3012D02D19689334019
:1016000006E0022D02D1168A334001E0968A33406B
:101610000C12012606FA04F41688344013B10CB1FA
:10162000012000E0002070BD10B50022002340F62C
:101630006A14A14200D100BF0A1201249440A3B24F
:10164000DC43048010BD000000380140004400402D
:1016500000480040004C0040005000400CB5002005
:10166000019000906C48006840F480306A4908603E
:1016700000BF6948006800F4003000900198401CE9
:101680000190009818B90198B0F5A06FF1D16248A7
:10169000006800F4003010B10120009001E000204B
:1016A00000900098012843D15C48006840F0100089
:1016B0005A4908600846006820F0030008600846A0
:1016C000006840F002000860534840685249486092
:1016D0000846406848600846406840F480604860BA
:1016E0000846406820F47C1048600846406840F492
:1016F000E81048600846006840F08070086000BF4D
:101700004548006800F000700028F9D04248406861
:1017100020F00300404948600846406840F002005D
:10172000486000BF3C48406800F00C000828F9D130
:101730000CBD10B5FFF792FF10BD10B5364800681C
:1017400040F00100344908600846406834490840C8
:101750003149486008460068324908402E4908600F
:101760000846006820F4802008600846406820F49D
:10177000FE0048604FF41F008860FFF7DAFF4FF06B
:1017800000602949086010BD10B50021002000222A
:10179000214B5B6803F00C0121B1042906D0082914
:1017A00028D107E0214B224C236027E01F4B204C1F
:1017B000236023E0184B5B6803F47010164B5B68E2
:1017C00003F48032022303EB904022B9194B4343C8
:1017D000174C23600DE0104B5B6803F4003323B11A
:1017E000144B4343124C236003E0104B4343104C13
:1017F000236003E00D4B0E4C236000BF00BF064B7F
:101800005B68C3F303130C4CE15C094B1B68CB40D2
:10181000074C236010BD0000001002400020024071
:101820000000FFF8FFFFF6FE08ED00E000127A006E
:101830003000002000093D00340000202DE9FE4F5B
:10184000804681EA0300C00F0C46009021F0004161
:1018500023F00045B8EB0200A94105D240462146DD
:1018600090461C460B46024623F00040104347D0EA
:10187000270DC7F30A00C3F30A510290401A0190E2
:1018800040286BDAC3F3130040F4801B00989246A3
:1018900020B10023D2EB030A63EB0B0B01985946EE
:1018A000C0F14002504600F097F906460D465046FA
:1018B0005946019A00F0AFF910EB0800614100248D
:1018C00087EA115284EAE7731A4340D0009A62B360
:1018D000019A012A4FEA075215DC001B61EB020155
:1018E0004FF0004202EA0752CDE90042001C41F5E8
:1018F000801132462B4600F0AFF903B0BDE8F08FFF
:1019000040462146F9E7001B61EB0201001C41F54E
:10191000801300185B412018A2F5001747EB030164
:1019200040EAD570B6196D4111E06D084FEA3606F0
:1019300045EAC0754FEA0752001B61EB0201001C2B
:1019400041F5801149084FEA3000001951413246F3
:101950002B4603B0BDE8F04F00F06FB900980122AC
:1019600040000023D0EB020263EBE07300982146B5
:101970004FEAE074B8EB000061EB0401E9E783F0A3
:1019800000435BE781F0004158E72DE9FE4F81EA13
:10199000030404F0004421F0004100944FF0000BD8
:1019A00023F0004350EA01045ED052EA03045BD006
:1019B000C3F30A54C1F30A552C44A4F2F33401943E
:1019C000A0FB0254C1F3130141F48011C3F31303CC
:1019D00043F4801301FB024400FB034E840A970A80
:1019E00044EA815447EA8357A4FB076802958D0AAD
:1019F00005FB07854FEA932C04FB0C542705029D39
:101A00004FEA065847EA1637B5EB08056EEB070CA8
:101A1000870E920E47EA811742EA8312A7FB020162
:101A2000B6EB0B0164EB00042B0D43EA0C335E189C
:101A300044EB1C50DA465146E7FB0201C5F31304A0
:101A40004FEA0B3343EA14534FEA0432019C43EA52
:101A50000603A4F10C040294009CCDE900B400F04C
:101A6000FBF803B0BDE8F08F00200146F9E72DE94F
:101A7000F04D81EA030404F0004B21F000451446C8
:101A80004FF0000A23F0004150EA050220D054EA4A
:101A900001021DD0C5F30A570246C5F31303C1F373
:101AA0001300C1F30A5640F4801543F48013A7EBEA
:101AB0000608101BD64608F2FD3873EB050002D36A
:101AC00008F1010801E092185B41B8F1000F03DA58
:101AD00000200146BDE8F08D00204FF4801106463D
:101AE00084460EE0171B73EB050705D3121B63EB4F
:101AF000050306434CEA010C49084FEA30009218EE
:101B00005B4150EA0107EDD152EA030012D082EAAC
:101B1000040083EA0501084305D0101BAB4106D23F
:101B20000122002306E000224FF0004302E06FF0A4
:101B3000010253101AEB06004CEB085110EB0A009F
:101B400041EB0B01BDE8F04D00F077B80EB5C10FC9
:101B500080EAE0700844CA07002140F233438DE870
:101B60000E000A460B4600F077F803B000BD70B5D2
:101B7000C1F30A5201F000450024C1F3130140F201
:101B8000FF3341F480119A4201DA002070BD40F227
:101B900033439A42A2F2334203DC524200F02BF864
:101BA00000E090402C43F1D0404270BD30B50B4670
:101BB000014600202022012409E021FA02F59D427D
:101BC00005D303FA02F5491B04FA02F52844151E51
:101BD000A2F10102F1DC30BD202A04DB203A00FA38
:101BE00002F1002070479140C2F1200320FA03F374
:101BF000194390407047202A04DB203A21FA02F072
:101C00000021704721FA02F3D040C2F12002914036
:101C1000084319467047202A06DBCB17203A41FAC1
:101C200002F043EAE07306E041FA02F3D040C2F169
:101C30002002914008431946704710B5141E73F1F5
:101C4000000408DA401C41F1000192185B411A437C
:101C500001D120F0010010BD2DE9F04D92469B46C8
:101C600011B1B1FA81F202E0B0FA80F2203290466E
:101C7000FFF7B2FF04460F4640EA0A0041EA0B01B3
:101C800053465A46084313D0114653EA010019D06F
:101C9000C8F140025046FFF7AEFF05460E465046DB
:101CA00059464246FFF798FF084305D0012004E05B
:101CB00020463946BDE8F08D0020054346EAE0762F
:101CC0002C4337430A986305E40AA0EB080000227E
:101CD000FD0A44EA47540A3002D500200146E9E7EC
:101CE000010510196941DDE9084500196941BDE8A0
:101CF000F04DA2E7064C074D06E0E06840F0010316
:101D000094E8070098471034AC42F6D3FEF714FA73
:101D10009C200008BC2000080FB4054B10B503A997
:101D2000044A029800F018F810BC5DF814FB00009B
:101D3000690100084400002002E008C8121F08C121
:101D4000002AFAD170477047002001E001C1121F3C
:101D5000002AFBD1704700002DE9FF4F8BB0884669
:101D60000546002606E025280BD0DDE90D12904738
:101D70006D1C761C28780028F5D10FB03046BDE8E0
:101D8000F08F0024A146A2460122AE4900E00443A0
:101D900015F8013F203B02FA03F00842F7D12878FA
:101DA0002A2810D06FF02F022878A0F130010929DD
:101DB00015D809EB890102EB410144F0020400EB64
:101DC00001096D1CF0E758F8041B5FEA010903D50F
:101DD00044F40054C9F1000944F002046D1C287851
:101DE0002E2817D115F8010F44F004042A280ED02C
:101DF0006FF02F022878A0F1300109290AD80AEBE8
:101E00008A0102EB410100EB010A6D1CF2E758F870
:101E100004AB6D1C28786C280FD006DC4C2817D03A
:101E200068280DD06A2814D104E0742810D07A28CC
:101E30000FD10DE044F400140AE044F4801401E0F2
:101E400044F440146978814202D104F580146D1C79
:101E50006D1C2878692865D006DC00288DD06328A1
:101E600027D0642806D15DE06E2808D073282AD0D8
:101E7000752877D0DDE90D129047761CE0E0C4F3B9
:101E80000250022809D003280DD0D8F800100428E9
:101E90000DD00E6008F10408D2E0D8F80010F21757
:101EA000C1E90062F6E7D8F800100E80F2E70E7084
:101EB000F0E718F8041B8DF8001000208DF80100E1
:101EC000EB46012003E058F804BB4FF0FF306107F8
:101ED0004FF0000701D40AE07F1C57450DDA874216
:101EE000FADB1BF807100029F6D106E07F1C8742B9
:101EF000FCDB1BF807100029F8D1DDE90D23A9EB65
:101F000007008146214600F0B1F83044C61904E0CC
:101F1000DDE90D121BF8010B90477F1EF8D2214618
:101F2000484688E058F8040BC4F302514FF00A0BFE
:101F3000032900D100B2042900D140B2002802DAFE
:101F400040422D2102E0210505D52B218DF82410DA
:101F5000012104E006E0E10710D02021F6E708AFF8
:101F6000089113E058F8040BC4F302514FF00A0B28
:101F7000032900D180B2042900D1C0B20021EEE7CC
:101F80005946FFF713FE303107F8011D0028F7D13D
:101F9000ADEB070000F1200B600702D524F480347C
:101FA00001E04FF0010ADA4502DDAAEB0B0000E088
:101FB0000020824600EB0B0108980144A9EB0100C8
:101FC0000A90E00306D4DDE90D2321460A9800F0CB
:101FD0004DF806444FF0000908E009A911F809007E
:101FE000DDE90D12904709F10109761C0899894530
:101FF000F3DBE0030CD5DDE90D2321460A9800F060
:1020000035F8064404E0DDE90D1230209047761CD7
:10201000BAF10001AAF1010AF5DC05E0DDE90D12D3
:1020200017F8010B9047761CBBF10001ABF1010BD7
:10203000F4DC0A982146DDE90D2300F005F806449A
:102040006D1C97E6092801002DE9F04104460025A2
:102050001E461746880404D405E039462020B047C0
:102060006D1C641EF9D52846BDE8F0812DE9F041CC
:10207000044600251E469046C80301D5302700E0DF
:102080002027880404D505E041463846B0476D1C3A
:10209000641EF9D52846BDE8F0810000BC20000888
:1020A0000000002048000000381D0008042100083E
:1020B0004800002000040000481D00080000000047
:1020C0000000000000000000000000000000000010
:1020D00000000000000000000000010203040102F3
:1020E00003040607080902040608000000A24A04C7
:1020F00000000000000000000102030406070809B8
:0421000000000000DB
:0400000508000131BD
:00000001FF
