:020000040000FA
:1000000078100020650100006D0100006F01000004
:1000100000000000000000000000000000000000E0
:10002000000000000000000000000000710100005E
:1000300000000000000000007301000075010000D6
:1000400077010000770100007701000077010000D0
:1000500077010000770100007701000077010000C0
:1000600077010000770100007701000077010000B0
:1000700077010000770100007701000077010000A0
:10008000770100007D070000770100007701000084
:100090007701000077010000770100007701000080
:1000A0007701000077010000770100007701000070
:1000B0007701000077010000770100007701000060
:1000C00000F002F800F03EF80CA030C80838241800
:1000D0002D18A246671EAB4654465D46AC4201D180
:1000E00000F030F87E460F3E0FCCB6460126334274
:1000F00000D0FB1AA246AB46334318475C0C000005
:100100007C0C0000103A02D378C878C1FAD85207A4
:1001100001D330C830C101D504680C6070470000BD
:100120000023002400250026103A01D378C1FBD813
:10013000520700D330C100D50B6070471FB51FBDFB
:1001400010B510BD00F0DAF81146FFF7F7FF00F028
:10015000FBFD00F0F2F803B4FFF7F2FF03BC00F080
:10016000F9F800000748804707480047FEE7FEE728
:10017000FEE7FEE7FEE7FEE704480549054A064BB1
:1001800070470000610B0000C100000078000020F3
:100190007810002078080020780800200022030949
:1001A0008B422CD3030A8B4211D300239C464EE092
:1001B00003460B433CD4002243088B4231D303094E
:1001C0008B421CD3030A8B4201D394463FE0C30900
:1001D0008B4201D3CB01C01A524183098B4201D318
:1001E0008B01C01A524143098B4201D34B01C01A03
:1001F000524103098B4201D30B01C01A5241C3087B
:100200008B4201D3CB00C01A524183088B4201D3E9
:100210008B00C01A524143088B4201D34B00C01AD5
:100220005241411A00D201465241104670475DE0EA
:10023000CA0F00D04942031000D34042534000226D
:100240009C4603098B422DD3030A8B4212D3FC2216
:10025000890112BA030A8B420CD3890192118B4295
:1002600008D3890192118B4204D389013AD09211AB
:1002700000E08909C3098B4201D3CB01C01A524166
:1002800083098B4201D38B01C01A524143098B422F
:1002900001D34B01C01A524103098B4201D30B0118
:1002A000C01A5241C3088B4201D3CB00C01A52413D
:1002B00083088B4201D38B00C01A5241D9D2430824
:1002C0008B4201D34B00C01A5241411A00D2014661
:1002D000634652415B10104601D34042002B00D5CB
:1002E0004942704763465B1000D3404201B500208D
:1002F000C046C04602BD704770477047754600F063
:1003000025F8AE46050069465346C008C00085463C
:1003100018B020B5FFF730FF60BC00274908B6468B
:100320000026C0C5C0C5C0C5C0C5C0C5C0C5C0C504
:10033000C0C5403D49008D46704710B50446C046D3
:10034000C0462046FFF707FF10BD00000048704779
:100350001400002001491820ABBEFEE72600020071
:10036000704700000249C96B0143014AD1637047DD
:10037000002400400648006904210843044908613C
:1003800008460069012108430149086170470000DF
:1003900000E000E0826A8BB29A4382627047026892
:1003A0008BB29A430260704782688BB29A43826034
:1003B000704742688BB29A4342607047026A8BB2C0
:1003C0009A43026270470000F8B506460C460027C3
:1003D000002500BF724886420ED0714840308642E8
:1003E0000AD06F488030864206D06D48C0308642C1
:1003F00002D06C48864201D1012000E00020002894
:1004000001D100BFFEE700BF00BF2068002805D96A
:1004100065492068884201D8012000E000200028BA
:1004200001D100BFFEE700BF00BF6068032808D00D
:100430006068002805D06068012802D06068022842
:1004400001D1012000E00020002801D100BFFEE71B
:1004500000BF00BFA068012802D0A068002801D119
:10046000012000E00020002801D100BFFEE700BF0E
:1004700000BFE068002802D0E068012801D1012017
:1004800000E00020002801D100BFFEE700BF00BF50
:100490006069002802D06069012801D1012000E0D4
:1004A0000020002801D100BFFEE700BF80203F49A7
:1004B000496B01433D4A516300BF6AE00121B940E5
:1004C000206808400546002D62D0606803281AD1D4
:1004D00029463046FFF763FF29463046FFF769FF9C
:1004E00029463046FFF760FF6069012806D100BF4A
:1004F000B06AA9B20843B06200BF33E02946304673
:10050000FFF748FF2EE029463046FFF743FF6068BB
:10051000002806D100BF3068A9B20843306000BF90
:1005200003E029463046FFF73AFFA068002804D1CF
:1005300029463046FFF738FF06E000BFB068A9B291
:100540000843B06000BF00BFE068002806D000BFCD
:100550007068A9B20843706000BF03E029463046C6
:10056000FFF727FF606802280DD12069012806D116
:1005700000BF306AA9B20843306200BF03E02946D9
:100580003046FFF71BFF29463046626800F010F83E
:100590007F1C2068F840002890D10120F8BD0000A1
:1005A000000C0040000D0040FFFF00000024004050
:1005B00030B5C3680C464C4365006419A3430C4630
:1005C0004C4354432343C36030BD000070B5044620
:1005D0000D4600BF4348844201D1012000E00020C5
:1005E000002801D100BFFEE700BF00BF68680128F6
:1005F00002D06868002801D1012000E00020002816
:1006000001D100BFFEE700BF00BFA868012802D0EB
:10061000A868002801D1012000E00020002801D1B5
:1006200000BFFEE700BF00BFE868012802D0E8680D
:10063000002801D1012000E00020002801D100BFE6
:10064000FEE700BF01200006FFF78CFE00BF606AD6
:1006500004210843606200BF6868012806D100BF1A
:10066000606A10210843606200BF06E000BF606A54
:1006700010218843606200BF00BFA86801280AD12A
:1006800000BF606A02210843606200BF20462968FB
:1006900000F03FF80BE000BF606A0221884360620F
:1006A00000BF28784106490E204600F032F8E8687D
:1006B000012807D100BF606A012149020843606236
:1006C00000BF07E000BF606A012149028843606201
:1006D00000BF00BF00BF606A01210843606200BF25
:1006E000012070BD002401400121C1627047014614
:1006F000C86AC007C00F01225040504070470146F1
:10070000C86A02221040400870470146486BC0B2D8
:100710007047826B920A92020A4382637047426B6F
:10072000120A12020A434263704710B5FFF722FE15
:1007300010BD000070B505460C462868032801D995
:10074000032028602046002805DBC206D20E0121C6
:100750009140094A116000BF2046296800F026F93F
:100760002046002806DBC206D20E01219140024A33
:10077000803A116000BF70BD80E100E010B5002438
:1007800000BF3F48806A042108408008002876D0D6
:1007900000BF3B48C06A0840800800286FD0384836
:1007A000FFF7B3FF044600BF04203549C86200BF0D
:1007B0000846FFF799FFE007C00F00282AD100BFC5
:1007C0002F48FFF794FF0028FAD02D48FFF79DFF30
:1007D0002C4908702A48FFF787FF00BF2848FFF719
:1007E00086FF0028FAD02648FFF78FFF254948707A
:1007F0002348FFF779FF00BF2148FFF778FF002863
:10080000FAD01F48FFF781FF1E4988701C48FFF788
:100810006BFF34E0E007C00F002830D01A480178A1
:100820001748FFF77CFF00BF1548FFF768FF002857
:10083000FAD000BF02201249C86200BF12484178B6
:100840000F48FFF76CFF00BF0D48FFF758FF002867
:10085000FAD000BF02200A49C86200BF0A48817866
:100860000748FFF75CFF00BF0548FFF748FF002877
:10087000FAD000BF02200249C86200BF00BF10BD0D
:1008800000240140000000200300002010B50020DB
:100890001C4949680F22120491430143194A5160CF
:1008A00000BF00BF10464068012108431146486060
:1008B00000BF002014490968890889000143124AD1
:1008C000116000BF00BF0F490968C908C900014392
:1008D0000C4A116000BF00BF1146096807221202CE
:1008E00091430143074A116000BF00BF11460968E8
:1008F0000722120491430143024A116000BF00F035
:1009000091F810BD002400400010004010B500F028
:1009100005F800F033F800F041F810BD00B58BB0D9
:100920000120C00205900220069000200790089048
:1009300009900A9005A90F48FFF746FD0120000322
:1009400005900220069000200790089009900A90D8
:1009500005A90848FFF738FD012002900A20019000
:10096000002003900120049001A90348FFF72EFE08
:100970000BB000BD000C00400024014000BF04206B
:100980000549C86200BF00BF0846806A04210843C9
:100990000149886200BF70470024014008B5022069
:1009A000009011216846FFF7C5FE08BD10B500286C
:1009B00019DB1A4A03231B02D21883089B00D25862
:1009C0008307DC0EFF23A3409A438B071B0E84078B
:1009D000E40EA3401A43114B032424021B1984087C
:1009E000A4001A5118E00E4A03071B0F083B9B088E
:1009F0009B00D2588307DC0EFF23A3409A438B074A
:100A00001B0E8407E40EA3401A43054B0407240F72
:100A1000083CA408A4001A5110BD000000E100E049
:100A20001CED00E010B5464800684007400F030089
:100A300000F07CF9073C050A3C0F32373C00414886
:100A400000684149086051E000F008F93E4908603B
:100A50004CE03B48406A8003800F002806D0012804
:100A600009D002280CD0032814D10EE04B204003FB
:100A7000354908600EE04B20C0023349086009E0A8
:100A80004B2080023049086004E04B2040022E4990
:100A9000086000BF00BF29E02C4800682A490860B0
:100AA00024E07D200002284908601FE024484068B7
:100AB0000003000F002813D0012804D0022806D01C
:100AC00003280CD107E022481F4908600CE02148A8
:100AD0001D49086008E020481B49086004E000BF89
:100AE0001E481949086000BF00BF00BF00BF14487E
:100AF00000684005400F042806D005280AD00628C3
:100B00000ED0072818D111E00F48006840080E49A0
:100B1000086012E00C48006880080B4908600CE08F
:100B200009480068C0080849086006E006480068EF
:100B300000090549086000E000BF00BF10BD0000CB
:100B4000002400400C0000201000002008000020BD
:100B50000024F40000366E010048E80100127A001B
:100B600010B53948406B01210903084336494863F1
:100B70000846406B802108433349486308460068B3
:100B80000121C9060843304908605520C861032087
:100B9000090548602D488069000C2C49098BC94320
:100BA00089B2884202D12948806900E01020C0063D
:100BB000C00E274988632548C0300068000C2349CF
:100BC000C0310988C94389B2884203D11F48C03067
:100BD000006800E08020C0B21B4988601B48C0301C
:100BE0004068000C1949C0318988C94389B28842DC
:100BF00003D11648C030406800E08020C0B21249DE
:100C0000886212488030006A000C10498031098CDB
:100C1000C94389B2884203D10C488030006A00E0A1
:100C20008020C0B2084948610A484068FF218131EC
:100C300008430849486005200749086001204860CA
:100C4000FFF7F0FE10BD00000024004080FAFF1FF7
:100C500000200040C00C00400028004010B50024D7
:100C60002C48C0688007C00F002802D001281BD183
:100C700017E0284840680003000F00280DD0012825
:100C800004D0022804D0032806D103E0224C06E059
:100C9000224C04E0224C02E000BF224C00BF00BF07
:100CA00002E02148046800BF00BF1A48C06840063F
:100CB000400F030000F03AF8080507090B0D131563
:100CC0001B1D00BF15E0640813E0A40811E0E40850
:100CD0000FE00C212046FFF761FA044609E02409E1
:100CE00007E018212046FFF759FA044601E064099D
:100CF00000BF00BF0748C0684002400E401C44438C
:100D00000448C0680007C00F002800D064002046D7
:100D100010BD0000002400400024F40000366E01E5
:100D20000048E80100127A000C00002030B474463C
:100D3000641E2578641CAB4204D3635D5B00E3183A
:100D400030BC18471D46F8E7FFF7A0FDFFF7EDFCA4
:100D5000FFF7DCFD00BFFEE7780D0000000000207B
:100D600014000000040100008C0D0000140000209D
:100D7000641000002001000000000024551600004F
:0C0D80000080000000127A0000127A00CF
:04000005000000C136
:00000001FF
