:020000040000FA
:1000000070100020650100006D0100006F0100000C
:1000100000000000000000000000000000000000E0
:10002000000000000000000000000000710100005E
:1000300000000000000000007301000075010000D6
:1000400077010000770100007701000077010000D0
:1000500077010000770100007701000077010000C0
:1000600077010000770100007701000077010000B0
:1000700077010000770100007701000077010000A0
:100080007701000077010000770100007701000090
:100090007701000077010000770100007701000080
:1000A0007701000077010000770100007701000070
:1000B0007701000077010000770100007701000060
:1000C00000F002F800F03EF80CA030C80838241800
:1000D0002D18A246671EAB4654465D46AC4201D180
:1000E00000F030F87E460F3E0FCCB6460126334274
:1000F00000D0FB1AA246AB46334318470408000061
:1001000024080000103A02D378C878C1FAD8520700
:1001100001D330C830C101D504680C6070470000BD
:100120000023002400250026103A01D378C1FBD813
:10013000520700D330C100D50B6070471FB51FBDFB
:1001400010B510BD00F0DAF81146FFF7F7FF00F028
:10015000C9FB00F0F2F803B4FFF7F2FF03BC00F0B4
:10016000F9F800000748804707480047FEE7FEE728
:10017000FEE7FEE7FEE7FEE704480549054A064BB1
:1001800070470000FD060000C10000007000002064
:100190007010002070080020700800200022030961
:1001A0008B422CD3030A8B4211D300239C464EE092
:1001B00003460B433CD4002243088B4231D303094E
:1001C0008B421CD3030A8B4201D394463FE0C30900
:1001D0008B4201D3CB01C01A524183098B4201D318
:1001E0008B01C01A524143098B4201D34B01C01A03
:1001F000524103098B4201D30B01C01A5241C3087B
:100200008B4201D3CB00C01A524183088B4201D3E9
:100210008B00C01A524143088B4201D34B00C01AD5
:100220005241411A00D201465241104670475DE0EA
:10023000CA0F00D04942031000D34042534000226D
:100240009C4603098B422DD3030A8B4212D3FC2216
:10025000890112BA030A8B420CD3890192118B4295
:1002600008D3890192118B4204D389013AD09211AB
:1002700000E08909C3098B4201D3CB01C01A524166
:1002800083098B4201D38B01C01A524143098B422F
:1002900001D34B01C01A524103098B4201D30B0118
:1002A000C01A5241C3088B4201D3CB00C01A52413D
:1002B00083088B4201D38B00C01A5241D9D2430824
:1002C0008B4201D34B00C01A5241411A00D2014661
:1002D000634652415B10104601D34042002B00D5CB
:1002E0004942704763465B1000D3404201B500208D
:1002F000C046C04602BD704770477047754600F063
:1003000025F8AE46050069465346C008C00085463C
:1003100018B020B5FFF730FF60BC00274908B6468B
:100320000026C0C5C0C5C0C5C0C5C0C5C0C5C0C504
:10033000C0C5403D49008D46704710B50446C046D3
:10034000C0462046FFF707FF10BD00000048704779
:100350000C00002001491820ABBEFEE72600020079
:100360007047826A8BB29A438262704702688BB28E
:100370009A430260704782688BB29A4382607047EA
:1003800042688BB29A4342607047026A8BB29A43CA
:1003900002627047F8B506460C460027002500BFEC
:1003A000724886420ED07148403086420AD06F486B
:1003B0008030864206D06D48C030864202D06C48FC
:1003C000864201D1012000E00020002801D100BFB9
:1003D000FEE700BF00BF2068002805D965492068F6
:1003E000884201D8012000E00020002801D100BF90
:1003F000FEE700BF00BF6068032808D060680028DF
:1004000005D06068012802D06068022801D101206F
:1004100000E00020002801D100BFFEE700BF00BFC0
:10042000A068012802D0A068002801D1012000E0C6
:100430000020002801D100BFFEE700BF00BFE06838
:10044000002802D0E068012801D1012000E000204E
:10045000002801D100BFFEE700BF00BF606900288F
:1004600002D06069012801D1012000E000200028AD
:1004700001D100BFFEE700BF80203F49496B014327
:100480003D4A516300BF6AE00121B940206808403D
:100490000546002D62D0606803281AD129463046EF
:1004A000FFF764FF29463046FFF76AFF29463046CA
:1004B000FFF761FF6069012806D100BFB06AA9B2E9
:1004C0000843B06200BF33E029463046FFF749FFDA
:1004D0002EE029463046FFF744FF6068002806D129
:1004E00000BF3068A9B20843306000BF03E029466E
:1004F0003046FFF73BFFA068002804D1294630466C
:10050000FFF739FF06E000BFB068A9B20843B0604A
:1005100000BF00BFE068002806D000BF7068A9B225
:100520000843706000BF03E029463046FFF728FF0C
:10053000606802280DD12069012806D100BF306A09
:10054000A9B20843306200BF03E029463046FFF7F6
:100550001CFF29463046626800F010F87F1C2068B6
:10056000F840002890D10120F8BD0000000C0040A8
:10057000000D0040FFFF00000024004030B5C368BC
:100580000C464C4365006419A3430C464C4354434A
:100590002343C36030BD000000B587B00220019046
:1005A000012002900020039004900590069001A97C
:1005B0000248FFF7EFFE07B000BD0000800C0040CE
:1005C00010B5464800684007400F030000F07CF972
:1005D000073C050A3C0F32373C004148006841495E
:1005E000086051E000F008F93E4908604CE03B48E3
:1005F000406A8003800F002806D0012809D0022815
:100600000CD0032814D10EE04B204003354908607C
:100610000EE04B20C0023349086009E04B20800205
:100620003049086004E04B2040022E49086000BFBA
:1006300000BF29E02C4800682A49086024E07D209A
:100640000002284908601FE0244840680003000FAA
:10065000002813D0012804D0022806D003280CD18A
:1006600007E022481F4908600CE021481D49086046
:1006700008E020481B49086004E000BF1E481949F3
:10068000086000BF00BF00BF00BF144800684005FD
:10069000400F042806D005280AD006280ED00728C7
:1006A00018D111E00F48006840080E49086012E0B8
:1006B0000C48006880080B4908600CE00948006895
:1006C000C0080849086006E00648006800090549B6
:1006D000086000E000BF00BF10BD00000024004023
:1006E0000400002008000020000000200024F40086
:1006F00000366E010048E80100127A0010B5394852
:10070000406B012109030843364948630846406BA2
:100710008021084333494863084600680121C9061F
:100720000843304908605520C86103200905486026
:100730002D488069000C2C49098BC94389B2884235
:1007400002D12948806900E01020C006C00E274968
:1007500088632548C0300068000C2349C0310988EF
:10076000C94389B2884203D11F48C030006800E005
:100770008020C0B21B4988601B48C0304068000C14
:100780001949C0318988C94389B2884203D11648C2
:10079000C030406800E08020C0B212498862124830
:1007A0008030006A000C10498031098CC94389B23D
:1007B000884203D10C488030006A00E08020C0B23B
:1007C000084948610A484068FF21813108430849C7
:1007D000486005200749086001204860FFF7F0FEE7
:1007E00010BD00000024004080FAFF1F00200040E0
:1007F000C00C00400028004010B500242C48C06800
:100800008007C00F002802D001281BD117E028481C
:1008100040680003000F00280DD0012804D00228F2
:1008200004D0032806D103E0224C06E0224C04E069
:10083000224C02E000BF224C00BF00BF02E0214872
:10084000046800BF00BF1A48C0684006400F03009C
:1008500000F03AF8080507090B0D13151B1D00BF22
:1008600015E0640813E0A40811E0E4080FE00C218F
:100870002046FFF793FC044609E0240907E018210D
:100880002046FFF78BFC044601E0640900BF00BF6F
:100890000748C0684002400E401C44430448C068FA
:1008A0000007C00F002800D06400204610BD0000E3
:1008B000002400400024F40000366E010048E801E6
:1008C00000127A000400002030B47446641E2578BB
:1008D000641CAB4204D3635D5B00E31830BC184773
:1008E0001D46F8E7FFF758FE07E002200349896933
:1008F0000143024A916100BF00BFF6E7800C00404F
:1009000020090000000000200C000000040100008D
:100910002C0900000C0000206410000020010000E1
:0C0920000080000000127A0000127A0033
:04000005000000C136
:00000001FF
